:020000040800F2
:10000000A00A00202D020008F12A00087928000823
:10001000ED2A0008FD030008093200080000000076
:10002000000000000000000000000000F92A0008A5
:100030007904000800000000F52A0008FD2A0008E5
:10004000470200084702000847020008470200086C
:10005000470200084702000847020008470200085C
:10006000470200084702000847020008470200084C
:100070006D04000847020008470200084702000814
:100080004702000847020008470200080D04000864
:100090000104000847020008470200084702000860
:1000A000470200084702000847020008470200080C
:1000B00047020008470200084702000847020008FC
:1000C00047020008470200084702000847020008EC
:1000D000470200084702000847020008FD310008F7
:1000E00047020008470200084702000847020008CC
:1000F00047020008470200084702000847020008BC
:1001000047020008470200084702000847020008AB
:100110004702000847020008BD2B000847020008FC
:10012000470200084702000847020008470200088B
:10013000470200084702000847020008470200087B
:10014000470200084702000847020008470200086B
:10015000470200084702000847020008470200085B
:10016000470200084702000847020008470200084B
:10017000470200084702000847020008000000008C
:10018000470200084702000800F002F800F03EF8BD
:100190000AA090E8000C82448344AAF10107DA45E2
:1001A00001D100F033F8AFF2090EBAE80F0013F0F6
:1001B000010F18BFFB1A43F001031847D441000098
:1001C000F4410000103A24BF78C878C1FAD8520729
:1001D00024BF30C830C144BF04680C6070470000C1
:1001E0000023002400250026103A28BF78C1FBD840
:1001F000520728BF30C148BF0B6070471FB504F0DD
:10020000A4F800F0AFF81FBD10B510BD00F0BCF8A9
:100210001146FFF7F3FF03F09DFC00F0DAF803B49A
:10022000FFF7F2FF03BC00F0E1F800000948804747
:1002300009480047FEE7FEE7FEE7FEE7FEE7FEE7C8
:10024000FEE7FEE7FEE7FEE704480549054A064BE0
:1002500070470000A92B000889010008A0040020B5
:10026000A00A0020A0060020A006002053EA020CED
:1002700000F069802DE9F04B4FF00006002B1FBF06
:10028000B3FA83F503FA05F424FA05F65E4012BFCB
:100290001643B2FA82F502FA05F4C5F120051EBF35
:1002A00022FA05FC44EA0C04203556EA044C4FEAD5
:1002B000144418BF641C4FF000084FF0000990422E
:1002C00071EB030C39D3002919BFB1FA81F701FA98
:1002D00007F6B0FA80F700FA07F6C7F120071EBF4D
:1002E00020FA07FC46EA0C062037B6FBF4FCA7EB25
:1002F0000507103F07F01F0BCBF120062CFA06F67E
:100300000CFA0BFB44BFB3460026202FA4BF5E4669
:100310004FF0000B5BEA060C08BF4FF0010B19EB26
:100320000B0948EB0608ABFB027C06FB02CC0BFB7F
:1003300003CCC01B71EB0C01C1E70B4602464146E2
:100340004846BDE8F08B13B5084318BF4FF0FF30A7
:100350000146AFF30080BDE81C407047704770470E
:100360007047000070B5064C7C44064D7D4404E0A7
:100370002046016808448047241DAC42F8D170BD76
:100380004440000044400000754600F02BF8AE46A3
:1003900005006946534620F00700854618B020B591
:1003A000FFF752FFBDE820404FF000064FF0000776
:1003B0004FF000084FF0000BAC46ACE8C009ACE8C9
:1003C000C009ACE8C009ACE8C00921F007018D46BE
:1003D000704710B50446AFF300802046BDE81040DA
:1003E000FFF71DBF0048704710000020014918208A
:1003F000ABBEFEE72600020070470000FEE70000EB
:1004000040F24810C2F2000000F0B4B940F24810C7
:10041000C2F2000000F0AEB980B588B040F2700CB6
:10042000030AC2F2000C0CF8103F8CF80100080A15
:100430008CF80200100A8CF804000020ACF80600CA
:10044000CDE9040008208CF803104FF400710690E9
:1004500040F248108CF805200291C2F2000002A977
:1004600001AB624600F026F808B080BD40F2701083
:10047000C2F2000000F020BC7047000072B600BF5E
:10048000FEE7000090F82020013A012A08D8006811
:1004900000F114020020136819431160704700BF77
:1004A00000F1240201204FF48021136819431160E8
:1004B0007047000010B590F820E0D0F800C0AEF111
:1004C000010EBEF1010FDCF808E011D81EF0E05F6C
:1004D00018D0CEF3016E012000FA0EF018608B6880
:1004E000D3B14868CC6844EAC000034318E000BFB9
:1004F00000F1240101204FF480220B681A430A60A6
:1005000010BD00BF00F1240101204FF400120B6860
:100510001A430A6010BD00BF0868CB6843EA405325
:100520000CEB0E10C0F880310B69C0F88431097DE6
:10053000012905D100F5C2710B6843F480730B608B
:100540005168C0F88C11126800F5C071C0F888219C
:10055000002001220B681A430A6010BDB0B590F864
:100560002020013A012A2FD846F20060C4F2000090
:10057000026842F001020260026822F47C520260CA
:10058000D1F814E0CC694A6A0368012C43EA0222DC
:1005900002600EF01F024FF0010303FA02F2C3697A
:1005A0006FEA020C23EA0203C36113D02CBBC368B9
:1005B00003EA0C03C360CB688C8844EA034300EB76
:1005C000CE0423640B4611E0416A41F4802141626C
:1005D0000120B0BDC3681343C3600B688C8844EA34
:1005E000034300EBCE04236401F10C038C681B88E9
:1005F00043EA044300EBCE04636443688D6943EA35
:100600000204D1F810E0096A002D08BF03EA0C04C7
:1006100044604369BEF1000F43EA020408BF03EAE5
:100620000C040129446102D1C1691143C16101680F
:1006300021F0010101600020B0BD00007047000002
:1006400010B590F82040013C012C7BD8D0F800C0B8
:10065000002900F08180DCF81040A40700F08180C0
:100660000CEB011CDCF8B0410CF5D87E14F004044E
:100670009460DCF8B04119BFE4085460640D146064
:10068000DEF800400CF5DA7E04F00204D460DCF8F9
:10069000B44124075ABFDEF8004004F00F040824D8
:1006A0001461DEF800400029C4F307249461DEF8E9
:1006B00000404FEA14445461DCF8B8211A70026813
:1006C00002EB0112D2F8B8214FEA12225A700268E6
:1006D00002EB0112D2F8B8214FEA12429A70026876
:1006E00002EB0112D2F8B8214FEA1262DA70026806
:1006F00002EB0112D2F8BC211A71026802EB01125E
:10070000D2F8BC214FEA12225A71026802EB0112A0
:10071000D2F8BC214FEA12429A71026802EB011230
:10072000D2F8BC214FEA1262DA71006814BF00F1FE
:10073000100100F10C01002020220B681A430A600E
:1007400010BD00BF00F1240101204FF480220B688E
:100750001A430A6010BD00BFDCF80C40A4077FF408
:100760007FAF00F1240101204FF400120B681A43FF
:100770000A6010BD2DE9F04F81B00446006846695B
:10078000D0F804908768D0F80CB0D0F810A0D0F85A
:100790001880F10704D1002530071DD424E000BFE4
:1007A000F90710D00121BA07816009D4780700F158
:1007B000AF80380700F1B680204600F015FA02E05D
:1007C000204600F013FA0025F80500F18780F803B1
:1007D00000F1B180300707D51BF0100004D020686D
:1007E00045F400751021C160700708D51BF00800A2
:1007F00005D020680821C160204600F0A9F9B007A3
:1008000006D52068C068800702D0204600F0A2F913
:10081000700607D51AF0100004D0206845F48065F2
:1008200010210161B00608D51AF0080005D0206833
:1008300008210161204600F0A3F9F00606D52068E2
:100840000069800702D0204600F09CF9B00308D56B
:1008500019F0100005D0206810214160204600F0FA
:1008600093F9F00308D519F0080005D02068082195
:100870004160204600F0C4F9300440F19B805FEAFB
:10088000497040F1948006F4807008EA10202843F3
:100890005FEA8871014648BF41F00201B20558BFC6
:1008A00001465FEA48700D4648BF45F004057005F3
:1008B00058BF0D46300540F17A8018F0700000F006
:1008C00076801038000905286CD8DFE800F003595D
:1008D0005D61656945F0080564E000BF20684FF47C
:1008E0008071BA0581600BD4780515D438051DD404
:1008F000204600F07DF9F8037FF56CAF1BE000BFE8
:10090000204600F077F9F8037FF564AF13E000BFED
:100910004FF4006558E700BF05F50055F8037FF573
:1009200059AF08E04FF480554EE700BF05F580450C
:10093000F8037FF54FAF20684FF48031BA03816030
:100940000AD4780310D4380314D4204600F054F9A4
:1009500030073FF541AF47E7204600F04FF9300739
:100960003FF53AAF40E700BF05F5004530073FF5DA
:1009700033AF39E705F5803530073FF52DAF33E765
:1009800045F010050EE000BF45F020050AE000BF6D
:1009900045F0400506E000BF45F0800502E000BFDD
:1009A00045F480752068816921F0700181612068BB
:1009B0000421416055B1606A40EA05012046616248
:1009C00001B0BDE8F04FFFF739BE00BF01B0BDE890
:1009D000F08F0000B0B5C8B1044690F8200010B9FF
:1009E000204600F071F82068016841F001010160C3
:1009F00000F01EFC054600BF20684168C90707D10A
:100A000000F016FC401B0B28F6D312E00120B0BD0D
:100A1000016821F00201016000F00AFC054600BFF8
:100A20002068416889070DD500F002FC401B0B28A7
:100A3000F6D3606A052140F400306062012084F83A
:100A40002010B0BD217E0268012922F0800208BF7B
:100A500080320260617E0268012922F0400208BFF4
:100A600040320260A17E0268012922F0200208BF04
:100A700020320260E17E0268012922F0100218BFD4
:100A800010320260217F0268012922F0080208BFAB
:100A900008320260617F0268012922F0040208BF67
:100AA00004320260D4E901C2D4E9033561691A4312
:100AB0002A431143ACF101021143C161002001211D
:100AC000606284F82010B0BD80B586B0016846F23F
:100AD0000040C4F20000814202D006B080BD00BFD9
:100AE000002143F630020191C4F20202136900F5BD
:100AF000D43043F000731361136903F00073019362
:100B0000019B0191136843F00803136012680223EC
:100B100002F008020192019ACDE902310921032273
:100B2000059101A90192049200F0A8FA1320002176
:100B3000002200F001FC132000F0EAFB1420002149
:100B4000002200F0F9FB142000F0E2FB06B080BDAB
:100B50007047000080B58AB003AA01AB0021FFF7FF
:100B60006FFD58B9039840F20321884206D140F244
:100B7000E030C2F2000001A902F068FD0AB080BDB9
:100B8000704700007047000070470000B0B5044691
:100B900090F8200001281DD1022084F82000206850
:100BA000016821F00101016000F042FB054600BF31
:100BB00020684068C00713D000F03AFB401B0B28A8
:100BC000F6D3606A40F400306062052084F82000AB
:100BD0000120B0BD606A40F4002060620120B0BD19
:100BE00000206062B0BD0000704700007047000048
:100BF0007047000070470000704700007047000019
:100C00007047000070B5866D044600F011FB94F843
:100C10003510022928D105462068216C026822F08F
:100C200016020260426922F08002426109B9A16C99
:100C300019B1016821F008010160016821F001018A
:100C4000016000BF20680068C00715D000F0F0FA0E
:100C5000401B0628F6D320206065032084F8350069
:100C6000002184F8341070BD8020606501200021CF
:100C700084F8341070BD00BFE06D3F2101FA00F030
:100C8000B060012084F835000020002184F8341081
:100C900070BD000090F83510022909D1052180F8B7
:100CA00035100068016821F00101016000207047E3
:100CB0008021416501207047F0B581B004460020D5
:100CC000009040F20800C2F200000268D4E9166009
:100CD00048F2B51337680821C1F64E3381403942D6
:100CE000A2FB03250CD0226813685B0708D51368A4
:100CF00023F004031360B160616D41F0010161658F
:100D000001218140394208D022685269120604D577
:100D1000B160616D41F00201616504218140394299
:100D200008D022681268920704D5B160616D41F065
:100D30000401616510218140394217D020680268A2
:100D4000120713D5B16002680168520308D4C905BF
:100D500008D4016821F008010160216C21B905E087
:100D600008033FD4216C09B120468847E16D20205B
:100D700000FA01F23A4241D020680368DB063DD513
:100D8000B26094F835300268052B1BD122F01602B0
:100D90000260426922F080024261226C0AB9A26CB0
:100DA0001AB1026822F0080202603F208840B06059
:100DB000012084F83500216D0020002984F83400DA
:100DC00052D157E00168520310D4C90512D401680A
:100DD00021F010010160012084F83500002084F822
:100DE000340007E0A16C0029BED1BFE7080301D49D
:100DF000616C00E0E16B09B120468847606DC8B3C3
:100E0000606DC0072ED0052084F835002068A90A3F
:100E1000026822F001020260009A01328A420092C6
:100E20001AD80268D20717D0009A01328A4200927B
:100E300012D80268D2070FD0009A01328A4200927B
:100E40000AD80268D20707D0009A01328A4200927B
:100E500002D80268D207DFD1012084F835000020D3
:100E600084F83400E16C29B1204601B0BDE8F040BF
:100E7000084700BF01B0F0BD2DE9F041044600F085
:100E8000D7F9ECB10546022084F83500002021682E
:100E900084F83400086820F00100086021680868C0
:100EA000C00711D000F0C4F9401B0528F6D903256E
:100EB00020230320636584F83550BDE8F08100BF2E
:100EC0000120BDE8F08100BF086848F23F02CFF280
:100ED0001002D4E9013500EA020C04F10C0898E88C
:100EE000C10143EA0C032B431843D4E9072E3043D6
:100EF00038431043626A40EA0E00042A40EA0803BD
:100F00001CD1206BD4E90A2E40EA0E001843086079
:100F10004869BEF1000F20F0030040EA020040F0F3
:100F2000040C11D0B8F5005F36D0B8F1000F45D1F0
:100F3000022A46D0012A3BD032B942E00B60486910
:100F400020F0070040EA020C01F0F8004AF6AB225C
:100F50001038CAF6AA22A0FB02231A0944F28633EB
:100F6000C0F600039A5C40F2FF335F284FF03F0069
:100F7000C1F814C021EA030100FA02F088BF04316D
:100F8000C4E916128860002301250020636584F8F7
:100F90003550BDE8F08100BF032AD5D80125402394
:100FA0000120DFE802F0030E030500BF82E700BF67
:100FB000AEF1C070B0FA80F0400904E0032A04D317
:100FC000C2D1CEF300600028BED00125402301200D
:100FD000636584F83550BDE8F081000070B590F885
:100FE00034C0BCF1010F46D04FF0010C80F834C082
:100FF000D0F858E090F835C0BCF1010F38D14FF06F
:10100000020C80F835C04FF0000CC0F854C0D0F886
:1010100000C08468056CC06DDCF80060402C26F4CC
:101020008026CCF80060CCF804300B4604BF134691
:101030000A463F2101FA00F0CCF80830CCF80C2029
:10104000CEF80800DCF8000040F01600CCF80000F4
:101050002DB1DCF8000040F00800CCF80000DCF80E
:10106000000040F00100CCF80000002070BD00BF7F
:10107000002180F83410022070BD00002DE9F04FEF
:1010800082B000F13E4241F6004502F1FF77C4F222
:101090000205082243F6004E4FEAB726A84208BFD1
:1010A0000722C4F2010E072E38BF4FEAB7220125EE
:1010B000002600274FF00008009208E008F1010820
:1010C0000437B8F1100F06F1020600F0A7800C6893
:1010D00005FA08F914EA090FF0D0D1F804B0032298
:1010E0000BF0030CACF10104B240012C6FEA020AD0
:1010F00010D88268CC6802EA0A02B44022438260B7
:101100004268CBF3001422EA090204FA08F42243ED
:10111000426005E0BCF1030F02D14FF0030C20E068
:10112000C2688C6802EA0A02B4402243BCF1020F92
:10113000C26016D16FF0030202EA58020244D2F8EC
:1011400020C007F01C050F230C69AB402CEA0303F9
:1011500004FA05F52B431362D1F804B001250BF016
:10116000030C02680CFA06F302EA0A021A431BF4A3
:10117000403F0260A2D0002243F644030192C4F231
:1011800002031A684FF6084C42F480421A601A684B
:10119000CFF6FF7C02F480420192019A28F003020C
:1011A000724452F80C3007F00C050F24AC40A343F6
:1011B000009C04FA05F52B4342F80C30DEF80820B9
:1011C0004B6842EA090543F60C4CDC0258BF22EAA0
:1011D0000905CEF80850C4F2010CDCF800209C028E
:1011E00042EA090558BF22EA0905CCF80050DEF8AA
:1011F00004209C0342EA090558BF22EA0905CEF8FB
:101200000450DEF80020DB0342EA090558BF22EA59
:101210000905CEF80050012550E700BF02B0BDE837
:10122000F08F0000002A08BF0904816170470000A8
:1012300040F29C40C2F200000068704740F200009B
:1012400040F29C41C2F20000C2F2000100780A683C
:10125000104408607047000080B543F60040C4F2B7
:101260000200016841F400710160016841F480618D
:101270000160016841F480710160032000F088F88A
:101280000F2000F005F800F027F8002080BD0000D6
:1012900070B540F20006C2F2000640F20801327852
:1012A000C2F200014FF47A730968B3FBF2F204460C
:1012B000B1FBF2F1084600F0D3FB0F2C4FF0010513
:1012C00008D838B94FF0FF3021460022002500F041
:1012D00033F87460284670BD82B0002043F64001A8
:1012E0000190C4F202014A6842F480424A604A68AE
:1012F00002F480420192019A0090086840F0805008
:101300000860086800F080500090009802B07047B4
:10131000002848BF7047C1B200F01F00012202FA46
:1013200000F04EF20012CEF2000242EAD10121F0AA
:10133000030108607047000010B54EF60C5CCEF259
:10134000000CDCF80030C3F3022E8EF00704042CEE
:1013500028BF0424BEF103034FF0FF3E0EFA04F44D
:1013600038BF0023A14399400EFA03F39A43114377
:1013700000F00F0200F160430901043A03F56443F1
:101380006244002848BF02F10C03197010BD000030
:101390004EF60C51CEF200010A684FF6FF031A40D8
:1013A00060F30A2242F0806040F0FD7008607047F0
:1013B0002DE9F041002800F08B8043F60808C4F2C4
:1013C00002080446D8F8F8030D4600F007008842EA
:1013D00007D288F8F853D8F8F80300F00700A842BD
:1013E00076D12068810717D5410705D5D8F80010B8
:1013F00041F4E051C8F80010010705D5D8F80010F5
:1014000041F46041C8F80010D8F80010A26821F03B
:10141000F0011143C8F80010C0073FD1D8F8F80315
:1014200000F00700A84207D988F8F853D8F8F80365
:1014300000F00700A8424BD12068410707D5D8F833
:101440000010E26821F4E0511143C8F800100007D1
:1014500008D5D8F80000216920F4604040EAC100B6
:10146000C8F8000000F07CF8D8F8001044F26E32A2
:10147000C1F30311C0F60002515C40F2080220FAE9
:1014800001F140F20400C2F200000068C2F2000262
:101490001160FFF7FDFE0020BDE8F0816068811E4D
:1014A000022907D258F8081C89015CBF0120BDE859
:1014B000F08111E0012807D158F8081C89035CBFAE
:1014C0000120BDE8F08107E058F8081C890703D423
:1014D0000120BDE8F08100BFD8F8001021F0030121
:1014E0000843C8F80000FFF7A3FE064641F288371C
:1014F000D8F80000616800F00C00B0EB810F8DD0CF
:10150000FFF796FE801BB842F2D90320BDE8F081B8
:1015100040F2080043F60801C2F20000C4F20201E2
:101520000068096844F27E32C1F38221C0F60002ED
:10153000515CC8407047000040F2080043F60801C3
:10154000C2F20000C4F202010068096844F27E326F
:10155000C1F34231C0F60002515CC8407047000040
:1015600010B543F60404C4F20204606800F00C00F5
:1015700008280BD0042819BF42F20040C0F2F40042
:1015800041F60030C0F2B70010BD00BF20682168EE
:101590002368490241F60031C0F2B70100F03F0272
:1015A000C3F388105CBF42F20041C0F2F401A1FB1A
:1015B00000010023FEF75AFE21680222C1F3014117
:1015C00002EB4101B0FBF1F010BD00002DE9F0414C
:1015D00082B0002868D00446007843F60006C007B1
:1015E000C4F202060BD0B06800F00C00042840F0F2
:1015F0009F803068800302D56068002854D020782E
:1016000080071AD5B06810F00C0F09D0B06800F050
:101610000C00082840F0A6807068400200F1A2800B
:101620003068800702D5E06801283DD13068216923
:1016300020F0F80040EAC10030602078000737D47D
:10164000207840074CD4A56955B3B06800F00C0071
:10165000082840F0BB80012D26D07068E16900F4B5
:1016600080028A4220D1216A00F03F028A421BD1C7
:1016700047F6C071626A0140B1EB821F14D1A16AC2
:101680004FF6FF73C903994300F44032A1F580314E
:101690008A4209D1E16A00F07060B0EB016F03D1BA
:1016A000002002B0BDE8F081012002B0BDE8F08169
:1016B0006069002840F20000C4F2472076D0012182
:1016C000C0F8801EFFF7B4FD054600BF706F8007AD
:1016D000B6D4FFF7ADFD401B0228F7D9DDE000BF0F
:1016E000306C10F080580AD100200190306C40F02E
:1016F00080503064306C00F080500190019847F2C7
:101700000007C4F200073868C00541D4386840F4C7
:1017100080703860FFF78CFD054600BF3868C00553
:1017200036D4FFF785FD401B0228F7D9B5E000BF8E
:10173000B06800F00C00082803D1706840023FF543
:1017400058AF6068B0F5803F07D0B0F5A02F40F0EB
:101750008D80306840F480203060306840F4803004
:1017600030608DE0E068002852D00020C4F24720AD
:1017700001210160FFF75CFD054600BF306880076E
:101780003FF554AFFFF754FD401B0228F6D984E023
:10179000A068012805D005284ED1306F40F0040024
:1017A0003067306F40F0010030674FE00021C0F833
:1017B000801EFFF73DFD0546706F80077FF540AF47
:1017C000FFF736FD401B0228F6D966E00027C4F279
:1017D000472700203866FFF72BFD022D05460BD169
:1017E000306880015ED5FFF723FD401B02284FF0D3
:1017F0000300F5D955E700BF306880017FF550AF91
:10180000FFF716FD401B02284FF00300F4D948E70C
:101810000020C4F2472000210160FFF709FD0546C2
:10182000306880077FF509AFFFF702FD401B0228F3
:101830004FF00300F4D934E7316F002821F00101A3
:101840003167316F21F0040131674DD0FFF7F0FCB3
:10185000054641F2883700BF306F800756D4FFF746
:10186000E7FC401BB842F7D917E000BF31680028F9
:1018700021F480313160316821F4802131604FD012
:10188000FFF7D6FC054600BF306880033FF5B7AED2
:10189000FFF7CEFC401B6428F6D9032002B0BDE858
:1018A000F08100BF04F11C052FCD084340EA8210EF
:1018B000D9034FF6FF729143A1F5803140EA0560EC
:1018C0000843706001203866FFF7B2FC044600BF91
:1018D000306880013FF5E4AEFFF7AAFC001B022848
:1018E0004FF00300F4D9DCE6FFF7A2FC054641F215
:1018F000883700BF306F800708D5FFF799FC401B81
:10190000B8424FF00300F5D9CBE600BFB8F1000FA5
:101910007FF499AE306C20F08050306493E600BFC5
:10192000FFF786FC054600BF306880037FF567AE91
:10193000FFF77EFC401B64284FF00300F4D9B0E6AB
:1019400070B538B10446406A30B10020206104F11E
:10195000140007E0012070BD6068B0F5827F03D0FD
:1019600004F11C00002101600026A66294F85100D9
:1019700020B9204684F8506000F03CF8022084F83A
:10198000510094E80F0001F48271056802F40442EA
:1019900025F040050560114403F4006223691144F9
:1019A00003F002026369114403F00102A369E569CF
:1019B000114403F40072114405F03802256A114401
:1019C00005F08002A56A114305F40052114301603D
:1019D000626A042101EA134102F0100211444160DD
:1019E000C16921F40061C1610120666584F851007C
:1019F000304670BD80B586B0016843F20000C4F285
:101A00000100814202D006B080BD00BF002143F634
:101A100030020191C4F20202536900F5544043F4CC
:101A200080535361536903F480530193019B0191E7
:101A3000136843F002031360126802F0020201927D
:101A4000019A382201920222CDE902210321049158
:101A50000521059101A9FFF711FB06B080BD00002B
:101A6000411E0020B0EB116F1CBF012070474EF2E9
:101A70001002CEF2000251604EF62351CEF2000168
:101A8000F0230B70072190601160704770470000D1
:101A90007047000010B590F83C20012A4FF0020278
:101AA00051D080F83D200268D2F804E0D2F808C096
:101AB0000C682EF07003234341F2FF74C4F200045B
:101AC000A24253600EDC40F2FF73C4F200039A425C
:101AD00016DCB2F1804F2BD040F20043C4F2000379
:101AE00024E000BF40F2FF33C4F201039A4213DC4A
:101AF00041F60003C4F200039A4219D0002313E018
:101B000040F60003C4F200039A4211D040F60043AD
:101B1000C4F200030AE000BF44F20003C4F2010370
:101B20009A4205D040F20043C4F201039A4204D124
:101B300049682CF08003194391600121002280F84C
:101B40003D1080F83C20104610BD0000002804BF66
:101B50000120704710B5044690F83D0028B90020D8
:101B600084F83C00204600F01FF8022084F83D0075
:101B70002068211D01F028F8012084F8460084F82F
:101B80003E0084F83F0084F8400084F8410084F867
:101B9000420084F8430084F8440084F8450084F847
:101BA0003D00002010BD000080B582B0006841F209
:101BB0000001C4F2000188421CBF02B080BD0020B9
:101BC000019043F64000C4F202000168002241F097
:101BD000100101600068002100F0100001900198E0
:101BE0003620FFF7A9FB362002B0BDE88040FFF7A2
:101BF0008FBB000090F83D1001291CBF01207047E9
:101C0000022180F83D10006841F2FF72C168C4F201
:101C10000002904241F00101C1600DDC40F2FF7111
:101C2000C4F20001884215DCB0F1804F2AD040F2A6
:101C30000041C4F2000123E040F2FF31C4F201018F
:101C4000884213DC41F60001C4F20001884219D039
:101C5000002113E040F60001C4F20001884211D0D7
:101C600040F60041C4F200010AE000BF44F2000166
:101C7000C4F20101884205D040F20041C4F20101E2
:101C8000884206D1816801F00701062904BF0020BF
:101C90007047016841F001010160002070470000B9
:101CA0007047000070B504460068C5680669B10752
:101CB00016D515F0020113D06FF002010161012168
:101CC00021778069800703D02046FFF7E9FF05E010
:101CD000204600F08FF8204600F08EF80020207794
:101CE000700719D515F0040016D020686FF00401B4
:101CF000016102212177806910F4407F04D02046E1
:101D0000FFF7CEFF06E000BF204600F073F8204644
:101D100000F072F800202077300717D515F0080082
:101D200014D020686FF00801016104212177C06997
:101D3000800703D02046FFF7B3FF05E0204600F000
:101D400059F8204600F058F800202077F00619D501
:101D500015F0100016D020686FF010010161082105
:101D60002177C06910F4407F04D02046FFF798FF28
:101D700006E000BF204600F03DF8204600F03CF8A9
:101D800000202077F00718BF15F0010002D13006BF
:101D900009D412E020686FF001010161204600F0D3
:101DA0002DF8300609D515F0800006D020686FF0B8
:101DB000800101612046FFF769FE700609D515F024
:101DC000400006D020686FF040010161204600F01D
:101DD000DDF8B00658BF70BD15F0200008D02168AE
:101DE0006FF0200220460A61BDE87040FFF750BE48
:101DF00070BD0000704700007047000070B588B0EB
:101E0000006841F20001C4F20001884202D008B02B
:101E100070BD00BF40F27005C2F2000595F82200C7
:101E200002280BD02978002945D040F2E030C2F2D8
:101E30000000B7EE000A01F067FBB8B300202A46A5
:101E400042F8100F5060CDE9040008204FF40071F3
:101E5000069040F248100291C2F2000002A901ABC4
:101E6000FEF728FB95F8220050B995F820000228CB
:101E700006D195F8210018B995F823000228C6D09C
:101E800040F2E03140F2D0040020C2F20001C2F280
:101E90000004287008704860204601F04DFA04F1F3
:101EA000280001F049FA08B070BD00BF287800286A
:101EB00041D195F822000028D4D195F820000228BD
:101EC000D0D195F821000028CCD195F82300022824
:101ED000C8D140F2E034C2F200042078C0B1FFF76C
:101EE000A7F948F21F51C5F2EB11A0FB01125109ED
:101EF000642201FB120000B200EE100A0220B8EECC
:101F0000C00A84F85800012084ED180A287012E0F5
:101F100040F2E034C2F20004204601F00DFB2046FE
:101F200001F07AFA0246A88000200021FEF774FA38
:101F30002878002896D040F2E034C2F20004B7EED0
:101F4000000A204601F0E0FA00287FF48BAF20461B
:101F500001F062FA00262A4642F8106F22F80C0CB3
:101F6000010A50714FF4007002900820069040F270
:101F700048101171C2F2000002A901ABD680CDE970
:101F80000466FEF797FA26706CE7000070470000C1
:101F900070B582B0044690F8420020280AD113465A
:101FA0000A4600294FF0010018BF002B06D102B0ED
:101FB00070BD00BF022002B070BD00BF01202063D1
:101FC000002622206663A262A385666484F842002C
:101FD0002168E06B42F6956C42F6F57E42F61955A3
:101FE000C0F6000CC0F6000EC0F600050431C0E9D2
:101FF0000FCEC0E91356FEF7F1FFD8B3102060648E
:10200000202084F842000120216B012940F0B28099
:102010000021009121680A680092496800910099A6
:10202000216851E8031F226841F0100142E80313C0
:10203000002BBCD0216851E8031F226841F0100139
:1020400042E80313002BB2D0216851E8031F226835
:1020500041F0100142E80313002BA8D0216851E899
:10206000031F226841F0100142E80313002BD7D16F
:102070009DE700BF019620680168019140680190CA
:102080000198206930B300BF206850E8030F216831
:1020900040F4807041E80302E2B1206850E8030F89
:1020A000216840F4807041E803029AB1206850E84A
:1020B000030F216840F4807041E8030252B12068A8
:1020C00050E8030F216840F4807041E80302002AC1
:1020D000DAD100BF206850E8050F216840F0010008
:1020E00041E80502BAB3206850E8050F216840F0C6
:1020F000010041E8050272B3206850E8050F21682D
:1021000040F0010041E805022AB3206850E8050FBD
:10211000216840F0010041E80502002ADAD11AE006
:10212000206850E8050F216840F0400041E80502B2
:10213000DAB1206850E8050F216840F0400041E81E
:10214000050292B1206850E8050F216840F0400078
:1021500041E805024AB1206850E8050F216840F0C7
:10216000400041E80502002ADAD10020216B012954
:102170003FF44EAF012002B070BD0000B0B5006862
:1021800044F60005C4F20005A84218BFB0BD40F2F5
:102190007002C2F2000202F13C0402F11800CAB25D
:1021A000214601F067FB80F0010205F5EA304FF4AB
:1021B0000061FFF737F840F27020C2F200002146BC
:1021C0002422BDE8B040FFF7E3BE000070470000E6
:1021D000B0B582B0044600680168C368426901F086
:1021E0002F05202D03F0200506D12DB1204602B089
:1021F000BDE8B04000F00ABF5FEA017C1EBF02F0FC
:10220000010E03F4907212EB0E0253D1226B012ADD
:1022100005D111F0100218BF13F0100236D10A06D2
:1022200022D513F080021FD094F8411021293FD10C
:10223000A168B1F5805F03D12169002900F0828295
:10224000216A4A1C226209784160E18C01390A0442
:10225000E1842DD1C16821F08001C160C16841F0E5
:102260004001C16002B0B0BD490621D513F0400164
:102270001ED0C16821F04001C1602021204684F8B1
:10228000411002B0BDE8B04000F0F4BA0021019165
:10229000016801914168019101994069400613D498
:1022A000A08DE18DE28D002A18BF884240F0CC81DC
:1022B00002B0B0BDCA0718BF13F4807240F0BE80F0
:1022C0004A0700F1C180C6E0E06B01684A68A38D4F
:1022D00091B2002900F0A881994280F0A581E285A1
:1022E000C069B0F5807F00F09D80206850E8030F42
:1022F000216820F4807041E80302DAB1206850E8D8
:10230000030F216820F4807041E8030292B1206835
:1023100050E8030F216820F4807041E803024AB1BD
:10232000206850E8030F216820F4807041E8030220
:10233000002ADAD1206850E8050F216820F001005A
:1023400041E80502BAB3206850E8050F216820F083
:10235000010041E8050272B3206850E8050F2168CA
:1023600020F0010041E805022AB3206850E8050F7B
:10237000216820F0010041E80502002ADAD11AE0C4
:10238000206850E8050F216820F0400041E8050270
:10239000DAB1206850E8050F216820F0400041E8DC
:1023A000050292B1206850E8050F216820F0400036
:1023B00041E805024AB1206850E8050F216820F085
:1023C000400041E80502002ADAD1202084F84200CA
:1023D00000202063206850E8030F216820F01000DF
:1023E00041E80302DAB1206850E8030F216820F0C9
:1023F000100041E8030292B1206850E8030F216801
:1024000020F0100041E803024AB1206850E8030FB1
:10241000216820F0100041E80302002ADAD1E06BC5
:10242000FEF7F0FB02206063A08DE18D401A81B2BF
:10243000204602B0BDE8B040FFF7A0BE626C42F09B
:10244000010262644A0706D5BEF1000F03D0626C38
:1024500042F0020262648A0706D5BEF1000F03D083
:10246000626C42F004026264BCF1000F09D545EAD7
:102470000E02B2FA82F2520903D1626C42F00802F3
:102480006264626C002A3FF413AF11F0200118BFA0
:10249000002D03D0204600F0B9FD20684069616C32
:1024A00000F0400001F00801401800F0B58000BFC6
:1024B000206850E8030F216820F4907041E803027F
:1024C000BAB3206850E8030F216820F4907041E807
:1024D000030272B3206850E8030F216820F4907063
:1024E00041E803022AB3206850E8030F216820F472
:1024F000907041E80302002ADAD11AE0206850E81F
:10250000050F216820F0010041E80502DAB12068DA
:1025100050E8050F216820F0010041E8050292B162
:10252000206850E8050F216820F0010041E805020D
:102530004AB1206850E8050F216820F0010041E809
:102540000502002ADAD1206B012824D1206850E846
:10255000030F216820F0100041E80302DAB120687F
:1025600050E8030F216820F0100041E8030292B107
:10257000206850E8030F216820F0100041E80302B2
:102580004AB1206850E8030F216820F0100041E8AC
:102590000302002ADAD1202084F8420000202063C0
:1025A00020684069400649D5206850E8050F216839
:1025B00020F0400041E80502DAB1206850E8050F3C
:1025C000216820F0400041E8050292B1206850E8FF
:1025D000050F216820F0400041E805024AB120685B
:1025E00050E8050F216820F0400041E80502002A6C
:1025F000DAD1E06B10B342F60D51C0F6000101656F
:10260000FEF748FB00283FF453AEE06B016D02B0CB
:10261000BDE8B040084700BF2046FFF7D7FD0020C7
:10262000606402B0B0BD00BF8B427FF441AEC069B0
:10263000B0F5807F7FF43CAE02227CE0204602B001
:10264000BDE8B040FFF7C2BD401A216851E8031F42
:10265000226821F4907142E80313DBB1216851E84C
:10266000031F226821F4907142E8031393B121689B
:1026700051E8031F226821F4907142E803134BB123
:10268000216851E8031F226821F4907142E8031386
:10269000002BDAD1216851E8051F226821F00101E1
:1026A00042E80513DBB1216851E8051F226821F0DB
:1026B000010142E8051393B1216851E8051F226822
:1026C00021F0010142E805134BB1216851E8051FD3
:1026D000226821F0010142E80513002BDAD1202104
:1026E00084F8421000212163216851E8031F226809
:1026F00021F0100142E80313DBB1216851E8031F08
:10270000226821F0100142E8031393B1216851E8D7
:10271000031F226821F0100142E803134BB1216826
:1027200051E8031F226821F0100142E80313002B37
:10273000DAD1022281B22046626302B0BDE8B04025
:10274000FFF71CBD216A31F8022B6FF35F22426054
:1027500021627AE5002804BF0120704710B50446C5
:1027600090F8410028B9002084F84000204600F08D
:1027700021F8242084F841002068C16821F4005128
:10278000C160204600F0C2FC2068016921F490413C
:102790000161416921F02A014161C16841F40051A0
:1027A000C16000202021606484F8411084F8421048
:1027B000606310BD70B586B00446016844F6000041
:1027C000C4F20000814201D006B070BD002643F67D
:1027D00030010196C4F202010A6900F5E03042F4CA
:1027E00080220A610A6902F480220192019A01960C
:1027F0000A6842F004020A60096801F004010191CC
:1028000001994FF4406101910221CDE902160321A3
:1028100004910721059101A9FEF730FC40F27015E3
:1028200046F22800C2F20005C4F202004FF0006137
:102830004FF4806285E843002846C5E90362C5E994
:102840000566C5E907666E62FEF716FB002818BF2D
:10285000FDF714FE272000210022E563AC63FEF79C
:102860006BFD2720FEF754FD06B070BD70470000D9
:102870007047000070470000FEE7000080B540F29E
:10288000481046F20041C2F20000C4F200010322E7
:10289000002380E80E0000F10C014FF4102C4FF4DF
:1028A000001E81E8085083618383FEF793F80028B7
:1028B00008BF80BDBDE88040FDF7E0BD80B582B0B7
:1028C0000020019043F63000C4F2020001680022AB
:1028D00041F4001101600068002100F40010019033
:1028E00001980C20FEF728FD0C2002B0BDE88040C6
:1028F000FEF70EBD2DE9F04786B04FF0000943F614
:102900003000CDF81490CDF80090C4F202000168B8
:1029100040F2000841F0020101600168C4F20208BF
:1029200001F0020100910099CDF80090016808F5CE
:10293000E05641F0010101600168002201F001014F
:1029400000910099CDF8009001684FF4E05741F0F4
:1029500008010160016801F0080100910099CDF8BB
:102960000090016841F004010160016801F0040178
:1029700000910099CDF80090016841F0800101605C
:1029800000684FF4E05100F080000090009830465D
:10299000FEF748FC4046102100224FF0100AFEF7D7
:1029A00041FC08F580652846012100220124FEF73C
:1029B00039FCCDE9017401AF30463946CDE9034910
:1029C000FEF75CFB0220039040463946CDE9014901
:1029D000FEF754FB40463946CDE901A4CDE9034951
:1029E000FEF74CFB28463946CDE90144CDE90349C1
:1029F000FEF744FB06B0BDE8F0870000B0B540F23A
:102A0000D01043F20001C2F20000C4F201014FF401
:102A10008272002380E80E0000F10C014FF0020CDE
:102A20004FF0010E4FF40074382581E808500A2158
:102A3000C0E90645C0E90833C0E90A31FEF780FF66
:102A4000002808BFB0BDBDE8B040FDF717BD0000CD
:102A500080B582B040F2282041F200020021C2F28B
:102A60000000C4F2000240F2E7334FF0530CCDE90E
:102A70000011C0E90023C0E9021C8161FFF766F87C
:102A8000002818BFFDF7FAFC40F22820C2F200002F
:102A90006946FEF7FFFF002818BFFDF7EFFC02B004
:102AA00080BD000010B540F2702044F6000C48F2E2
:102AB000A062C2F20000C4F2000CC0F201024FF4A6
:102AC000805300214FF4806E0C24C0E900C2C0E99D
:102AD0000231C0E904E4C0E90611FFF73BFE00281B
:102AE00008BF10BDBDE81040FDF7C8BCFEE7000000
:102AF000FEE700007047000070470000FEF79EBB35
:102B0000B0B592B0002443F640000B94CDE90944DF
:102B1000CDE907440594CDE90344CDE9014400948F
:102B2000C4F202000168022541F080510160006892
:102B300000F080500090009847F200000094C4F22A
:102B40000000016841F480410160006800F48040A9
:102B5000009000980120099010200A9008200E9003
:102B6000A820CDE90F050420119006A80695CDE90F
:102B70000C54FEF72BFD18B172B600BFFEE700BF84
:102B80000F20CDE901054FF4A05004904FF4805080
:102B9000059001A805210394FEF70AFC10B172B656
:102BA000FEE700BF12B0B0BD4EF68850CEF2000076
:102BB000016841F4700101607047000040F2282074
:102BC000C2F20000FFF76EB8B0B540F6FF3E0568F0
:102BD000C4F2000E40F2004C7045C4F2010C27DC38
:102BE000B0F1804F31D040F20043C4F2000398426C
:102BF0002BD040F60003C4F20003984225D041F6E2
:102C0000FF73C4F2000398422ADC70453CDCB0F14B
:102C1000804F5FD040F20043C4F20003984259D085
:102C200040F60003C4F20003984253D057E000BFBF
:102C300040F60043C4F20003984206D0604504D039
:102C40000023C4F201039842D9D14B6825F07002E9
:102C500043EA020541F6FF73C4F200039842D4DD53
:102C600043F6FF73C4F20103984221DC42F20003F1
:102C7000C4F2000398422DD00023C4F2010398420D
:102C800028D0604526D02AE040F60043C4F2000375
:102C900098421FD041F60003C4F20003984219D0B5
:102CA00041F60043C4F20003984213D017E000BF7E
:102CB00044F20003C4F2010398420BD044F600032F
:102CC000C4F20103984205D044F20043C4F2010368
:102CD000984204D1CB6825F4407243EA02050A68A1
:102CE0008C684B69C46240F480648262644504BFAE
:102CF00009690163026825F0800142F0040219436A
:102D00000260012242610160B0BD0000806B0021C1
:102D1000C185FFF75BBA0000806B01684A6990F8D3
:102D20004130212B2DD112F080022AD00021C18404
:102D3000016851E8031F026821F0C00142E8031353
:102D4000DBB1016851E8031F026821F0C00142E8CD
:102D5000031393B1016851E8031F026821F0C00119
:102D600042E803134BB1016851E8031F026821F0E8
:102D7000C00142E80313002BDAD1202180F8411072
:102D80000168496990F84220222A40F07D8011F0C4
:102D9000400179D00021C185016851E8031F026814
:102DA00021F4907142E80313BBB3016851E8031F9B
:102DB000026821F4907142E8031373B3016851E88B
:102DC000031F026821F4907142E803132BB30168DA
:102DD00051E8031F026821F4907142E80313002BAD
:102DE000DAD11AE0016851E8051F026821F00101FB
:102DF00042E80513DBB1016851E8051F026821F0C4
:102E0000010142E8051393B1016851E8051F02680A
:102E100021F0010142E805134BB1016851E8051F9B
:102E2000026821F0010142E80513002BDAD1016BA1
:102E3000012924D1016851E8031F026821F0100123
:102E400042E80313DBB1016851E8031F026821F077
:102E5000100142E8031393B1016851E8031F0268AF
:102E600021F0100142E803134BB1016851E8031F40
:102E7000026821F0100142E80313002BDAD120216F
:102E800080F8421000210163416C41F0100141645F
:102E9000FFF79CB90168806B0968C90500F19F8044
:102EA0000021C185016851E8031F026821F4807187
:102EB00042E80313E3B1016851E8031F026821F4FB
:102EC000807142E803139BB1016851E8031F026857
:102ED00021F4807142E8031353B1016851E8031FE4
:102EE000026821F4807142E80313002BDAD100BF9D
:102EF000016851E8051F026821F0010142E805134D
:102F0000BBB3016851E8051F026821F0010142E8E6
:102F1000051373B3016851E8051F026821F0010130
:102F200042E805132BB3016851E8051F026821F040
:102F3000010142E80513002BDAD11AE0016851E8DB
:102F4000051F026821F0400142E80513DBB101686A
:102F500051E8051F026821F0400142E8051393B1D2
:102F6000016851E8051F026821F0400142E805139D
:102F70004BB1016851E8051F026821F0400142E8A9
:102F80000513002BDAD1202180F84210016B0129B2
:102F900025D100BF016851E8031F026821F010012C
:102FA00042E80313DBB1016851E8031F026821F016
:102FB000100142E8031393B1016851E8031F02684E
:102FC00021F0100142E803134BB1016851E8031FDF
:102FD000026821F0100142E80313002BDAD100212E
:102FE0004163016B012918BFFFF740BC818DFFF7DA
:102FF000C5B80000806B01214163016B012918BF36
:10300000FFF736BC818D4908FFF7B8B881B090F85A
:103010004210222921D183680246B3F5805F09D18D
:1030200052F8281F52F8183C002B63D003685B68E5
:103030000AE000BF52F8281F13B90369002BF5D02E
:1030400003685B6803F07F030B7011680131116046
:10305000C18D01390A04C18502D001B0704700BF9B
:103060000168CA6822F02002CA60CA6822F480722D
:10307000CA604A6922F001024A61202180F84210A8
:1030800000214163026B012A3CD10163016851E8D0
:10309000031F026821F0100142E80313DBB101684D
:1030A00051E8031F026821F0100142E8031393B1B5
:1030B000016851E8031F026821F0100142E8031380
:1030C0004BB1016851E8031F026821F0100142E88A
:1030D0000313002BDAD101680A68D20606D5002254
:1030E00000920A680092496800910099818D01B0B0
:1030F000FFF744B8026852686FF35F2221F8022B91
:103100008162A5E701B0FFF7B1BB000010B504462E
:103110000068D4E902C22369016921F440511143D6
:103120000161626943EA0C01E3691143C268194312
:1031300049F20C639A431143C1604169A26921F4C9
:10314000407141F20043114340F48062C4F2010334
:103150009A42416102D1FEF7EFF901E0FEF7D8F99A
:10316000E16963681922B1F5004FA0FB020123D188
:103170005A00DB0FFDF77AF848F21F51C5F2EB1148
:10318000A0FB01235A094FF69C73C0F6FF7303F1AD
:10319000805302FB0300322303EBC000A0FB0101BC
:1031A0004FF4F87000EA111000EB0210C1F3421165
:1031B00008442168886010BD9A009B0FFDF756F8FF
:1031C00048F21F51C5F2EB11A0FB01235A094FF63B
:1031D0009C73C0F6FF7302FB0300322303EB001065
:1031E000A0FB0101F02000EA511000EB0210C1F336
:1031F000431108442168886010BD000040F270202F
:10320000C2F20000FEF7E4BFFEE700002DE9F04146
:103210002DED068B82B040F2D0089FED3E8AC2F2BF
:103220000008DFED3A0A9FED3A1A9FED3B2ADFEDE9
:103230003B2A9FED3B3AB0EE000A4046F0EE481ABA
:1032400000F0DCF89FED382A08F12805B7EE009A67
:103250009FED341A2846B0EE490AF0EE480AF0EE27
:10326000481AF0EE422AB0EE483A00F0C7F89FED57
:1032700031AA08F15006DFED2D0A9FED2D2AB7EE99
:10328000080AB6EE003A3046B0EE481AF0EE481A98
:10329000F0EE4A2A00F0B2F840F27447C2F200079A
:1032A0003846B0EE490AF0EE480AB0EE481AF0EEA1
:1032B000481AB0EE4A2AF0EE482AB0EE483A00F03A
:1032C0009DF840F24C300124C2F2000029464246EB
:1032D0000023009400F06EFA40F2B820C2F2000021
:1032E000394632460023009400F064FA40F2E030A0
:1032F000C2F20000294642460123009400F05AFA27
:1033000002B0BDEC068BBDE8F08100BF6F12033B3D
:103310009A99193E00000000000048450000FA4458
:103320003333333FCDCCCC3D0080BB440AD7A33BE5
:1033300000606A4600401C460021C0E90711416256
:103340007047000090ED014A30EE602A90ED076A68
:1033500090ED055A24EE024A90ED003A34EE064A0A
:10336000B4EE454A22EE033AF1EE10FA80ED074A38
:1033700006DCB1EE455AB4EE454AF1EE10FA03DA36
:10338000B0EE454A80ED075A90ED085AD0ED020A9A
:1033900032EE457AD0ED062A90ED096A20EE877A62
:1033A000F7EE000A70EEE20AD0ED031A20EE877AFB
:1033B00022EE866A36EE076A80ED082A33EE042A8A
:1033C00036EE022A20EE210A90ED045A30EE020A6F
:1033D00030EE010AB4EE450AF1EE10FA80ED096A0A
:1033E000C4BFB0EE450A7047B1EE451AB4EE410ACB
:1033F000F1EE10FAB8BFB0EE410A7047002180EC40
:10340000060AC0E90711416280ED063A70470000E4
:1034100080F859107047000010B52DED028B04465E
:1034200090F8580030B301282ED002283AD194EDFC
:10343000180A9FED341A94ED1B2A9FED318A04F18E
:10344000080020EE010A62EE010AB0EE481AFFF70A
:1034500079FF94F85900B5EE400A68B3F1EE10FA1E
:10346000B0EE401AC8BFB0EE481A012808BFB0EE4F
:10347000410A35E094ED170ABDEEC00A10EE100ABD
:10348000BDEC028B10BD00BF94F85900D0B10128EB
:1034900024D194ED170AB5EE400AF1EE10FA1FDDC3
:1034A00017E000BF9FED160ABDEEC00A10EE100A2D
:1034B000BDEC028B10BD00BFF1EE10FAB8BFB0EE4C
:1034C000480A0DE094ED170AB5EE400AF1EE10FA45
:1034D00006DA9FED0B0A0020E06501E094ED170A83
:1034E000D4ED190A9FED061A04F13000FFF72AFF08
:1034F000BDEEC00A10EE100ABDEC028B10BD00BF7D
:10350000000000000000614590ED181A90ED1B2AA4
:10351000002031EE421AB5EE401AB1EE412AF1EE2A
:1035200010FAB8BFB0EE421AB4EE401AF1EE10FA3B
:10353000B8BF01207047000070B50446B0F97800AC
:1035400000F096FC9FED3A0B05460E4651EC100B31
:10355000C80F60F3DF76D4F88C0000F05BFE024603
:103560000B462846314600F09CFEB8BB94ED1B0A82
:1035700094ED1C1A30EE410A10EE100A20F00040C3
:1035800000F048FE9FED2C0B53EC102B00F082FE58
:1035900020BBB4F88800013081B200EE101AA4F804
:1035A0008800B8EE400A94ED241AB4EE401AF1EE09
:1035B00010FA1FDC9FED240A00210120B0EE401A12
:1035C000E165C4E91A1161602070A4F8881084EDE7
:1035D000180A84F8580084ED1C1A70BD9FED1A0A71
:1035E0000020A4F8880094ED241AB4EE401AF1EEFD
:1035F00010FADFDD606800F00DFE9FED110B53EC5B
:10360000102B00F045FB00F011FB00EE100ABDEEA0
:10361000C00A94ED1B1A6060B8EEC00A022084ED67
:10362000180A84F8580084ED1C1A70BD00BF00BF52
:1036300000000000000000007B14AE47E17A743FF8
:103640007B14AE47E17A84BF0000000080B54B8850
:103650000A88DBBA00EE103A90F8803012BA4FEACE
:10366000124EB8EEC00A80ED190A6BB1B0F8743092
:10367000AEEB030213B2B3F5805FA0F8762009DD4C
:103680004FF4604C0BE000BF0121A0F874E080F81B
:10369000801080BD13F5805F04DA4FF4005C634452
:1036A000A0F876301AB200EE102A9FED101AB8EE8C
:1036B000C00A20EE010A9FED0E1A90ED1A2A20EEA4
:1036C000010A30EE020A80EE011A9FED0A2A80ED0F
:1036D0001A0A21EE021A80ED1B1A8988A0F874E0FC
:1036E00009BA090CA0F8781080BD00BF00000039AD
:1036F0000000B44333331340022980F8581051D1ED
:1037000090F8591041B301294CD190ED1A1AB4EE3A
:10371000401AF1EE10FA45DA9FED242A30EE020A43
:10372000B4EE410AF1EE10FA3CDD30EE020AB4EEDE
:10373000410AF1EE10FA35DD30EE020AB4EE410A2C
:10374000F1EE10FA2EDD30EE020AB4EE410AF1EE8F
:1037500010FAE3DC26E000BF90ED1A1AB4EE401A2E
:10376000F1EE10FA1EDD9FED122A00BF30EE020AC4
:10377000B4EE410AF1EE10FA14DA30EE020AB4EEB9
:10378000410AF1EE10FA0DDA30EE020AB4EE410A07
:10379000F1EE10FA06DA30EE020AB4EE410AF1EE6A
:1037A00010FAE3DB80ED170A704700BF0000B4C3D6
:1037B0000000B4432DE9F0434FF0000C80F800C046
:1037C000C0F804C0D1E90089D1E90267D1E9045405
:1037D000C0E90467C0E90654C0E90289D1E9064599
:1037E000D1E90816C0E90845C0E90A16D2E9008403
:1037F000D2E90256D2E90417C0E90E56C0E9101703
:10380000C0E90C84D2E90614D2E90825DDF81CE0F1
:10381000C0E91425C0E9121446F200010022C4F2E6
:103820004751C4F2201280F858E0C0F85CC0C0E9EB
:103830001ACCC0F870C080F880C080F88130A0F841
:1038400088C0C0E9231280F859C04BB1012B18BFC2
:10385000BDE8F0839FED060A80ED210ABDE8F08304
:103860009FED020A80ED210ABDE8F08300001042BE
:103870002CA099412DE9F04188B0192AC0F0908020
:10388000804608780F2840F08B806846043021225B
:103890004FF0010E40F2FE7C0AE000BF06F4FF6329
:1038A00043EA04072C324780D12A00F108007BD07C
:1038B000A2F121070EEBD706F5B251FA86F676781B
:1038C00007F00407C7F108044D5DA64025FA07F785
:1038D0006FF3DF26374320F8047CA2F116070EEBC6
:1038E000D704E6B207F007058F5D51FA84F35B78E1
:1038F00027FA05F4C5F10807052D03FA07F705D2E5
:1039000007EA0C0343EA040709E000BF73189B7839
:10391000C5F11005AB4023431F436FF3DF27A2F12E
:103920000B030EEBD30420F8027CE7B203F006058C
:10393000CB5D51FA84F623FA05F47378C5F10806D5
:10394000052D03FA06F605D26FF3DF2646EA0407D3
:103950000AE000BF7B189B78C5F11005AB402343FC
:1039600043EA06076FF3DF270EEBD2030780DFB2CF
:1039700051FA83F302F00505CC5D5B78C5F10806CA
:10398000EC40052D03FA06F688D17B189B78C5F12B
:103990001005AB40234343EA06076FF3DF2781E7B7
:1039A000002008B0BDE8F081BDF80030BDF804206B
:1039B00000EE103A9FED652AB8EE400ABDF802C04D
:1039C000BDF806E030EE023A00EE102A9FED604AA4
:1039D000B8EE400A30EE021A00EE10EA05EE10CA08
:1039E000B8EE400A83EE043AB8EE455A30EE020AC9
:1039F00035EE022ABDF8080080EE040A81EE041AB2
:103A000082EE042A0124A8F80030A8F802C0A8F821
:103A10000420A8F806E0B0F5AF6F88BF0224B0F527
:103A2000167F38BF0024BDF80A00012188F809403C
:103A3000B0F5AF6F88BF0221B0F5167F38BF002107
:103A400088F80A10BDF80C100020B1F5806F4FF017
:103A5000000188BF0121BDF80E204900B7EE004AE1
:103A600088F80810B2F5806F88BF0120B4EE443AA0
:103A70004000F1EE10FA88F80B0088ED050A88ED99
:103A8000061A88ED073A88ED082A33DD88ED074AE3
:103A9000B7EE003AB4EE432AF1EE10FA3ADCBFEE8C
:103AA000003AB4EE432AF1EE10FAB8BF88ED083AB6
:103AB000B7EE002AB4EE421AF1EE10FA33DCBFEE94
:103AC000002AB4EE421AF1EE10FAB8BF88ED062AC9
:103AD000B7EE001AB4EE410AF1EE10FA2CDCBFEE9C
:103AE000001AB4EE410AF1EE10FAB8BF88ED051ADB
:103AF00024E000BFBFEE004AB4EE443AF1EE10FA03
:103B0000B8BF88ED074AB7EE003AB4EE432AF1EEAB
:103B100010FAC4DD88ED083AB7EE002AB4EE421A76
:103B2000F1EE10FACBDD88ED062AB7EE001AB4EEFE
:103B3000410AF1EE10FAD2DD88ED051AFDF778FBA7
:103B4000C8F80C00012008B0BDE8F081000080C476
:103B500000002544FDF780FBFEF7D2FFFEF7CAFE0A
:103B6000FEF7ACFEFEF78AFEFEF772FFFEF79AFF45
:103B7000FEF744FF00F002F8FEE7000010B58AB03F
:103B8000002040F24814CDE90600CDE90400CDE95B
:103B90000200CDE900000120C2F20004CDE90800D6
:103BA00069462046FCF7DAFC2046FCF7EFFF20468A
:103BB0000221FCF767FC41F60044C4F202042046EF
:103BC0004FF480610122FDF72DFB20464FF4006188
:103BD0000022FDF727FB20464FF480510022FDF71D
:103BE00021FB40F22820C2F20000FEF703F840F269
:103BF0007000C2F2000000F13C0140F27020C2F2FD
:103C000000002422FEF7C4F940F2E034C2F20004BE
:103C10009FED050A20460121FFF76EFD2046022197
:103C2000FFF7F6FB0AB010BD0000000021F00042D3
:103C300001F00043A2F16052B2F5801F28BFD2F11B
:103C40007F6C0BD95FEA001C43EAC20242EB507062
:103C500018BF704728BF20F001007047B2F5801FE1
:103C6000BCBF184670474FEA410C1CF5001F02D23A
:103C7000084600F077BB70B500F08AF900000089B3
:103C8000FFF7F6BF4FF00040A0F58000704700003E
:103C900010B591EA030F48BF83F0004300F1D481CF
:103CA000841A71EB030C05D2121943EB0C03001BB1
:103CB00061EB0C014FEA1154A4EB135CDFF81CE13B
:103CC0001EEA430F18BF9EEA445F00F0748021EAA9
:103CD000045123EA0E0343F48013DCF1200E32D3A7
:103CE00022FA0CFE10EB0E0023FA0CFE41EB0E0143
:103CF000CCF1200E03FA0EFE10EB0E00CCF1200EDC
:103D000051F10001B1F5801F32D201EB045112FADA
:103D10000EF2BDE8104058BF7047401C38BF5FEA44
:103D2000420218BF7047002814BF20F0010041F183
:103D300000014FEA410313F5001F38BF7047A1F19E
:103D4000C04100F073B9012A43EB0302ACF1200C2F
:103D5000DCF11F0E32BF4FF0000E23FA0CF310EB14
:103D6000030041EB0451B4EB115FD0D0A1EB04513F
:103D700001F58011490801EB04515FEA30000ED3D0
:103D800050F1000038BF12FA0EFE08D1BDE8104015
:103D9000C9E7401C38BF5FEA4202CAD1C3E7BDE8A9
:103DA00010404FEA410313F5001F38BF7047A1F1DF
:103DB000C04100F03BB99EEA445F08D011EA5E0FB3
:103DC000BDE8104004BF01F0004100207047BDE88D
:103DD000104070B500F0DCF864FBBE3E0000E0FF70
:103DE000491058BFC1F140415B1058BFC3F1404377
:103DF0008B42EFF30080704751EA030C17D41CF597
:103E0000801F58BFBCF5801F00F10680994218BF83
:103E1000704708BF9042704707D711F5801F58BF01
:103E200013F5801F19D499427047894270471CF5D9
:103E3000801F08D5BCF5801FF7D58B4218BF70478F
:103E400008BF824270474FF4001C1CEB410F38BF83
:103E50001CEB430F01D28B42704770B500F098F80D
:103E6000922449004FF000514FF08053FFF7B8BF44
:103E700010F0004248BF4042B0FA80F310FA03F15C
:103E80000AD0C3F11D0303F5806302EB03524FEA2E
:103E9000415002EBD12170474FF000007047000005
:103EA00051EA030C17D41CF5801F58BFBCF5801FC6
:103EB00000F10680994218BF704708BF90427047D2
:103EC00007D711F5801F58BF13F5801F19D49942E9
:103ED0007047894270471CF5801F08D5BCF5801FCC
:103EE000F7D58B4218BF704708BF824270474FF426
:103EF000001C1CEB410F38BF1CEB430F01D28B425F
:103F0000704770B500F044F8922449004FF080519A
:103F10004FF00053FFF764BF51EA030C17D41CF5B0
:103F2000801F58BFBCF5801F00F10680994218BF62
:103F3000704708BF9042704707D711F5801F58BFE0
:103F400013F5801F19D499427047894270471CF5B8
:103F5000801F08D5BCF5801FF7D58B4218BF70476E
:103F600008BF824270474FF4001C1CEB410F38BF62
:103F70001CEB430F01D28B42704770B500F008F87C
:103F8000922449004FF000514FF08053FFF728BFB3
:103F90000EF1020E2EF0030E5EF8046B364205D4CD
:103FA000012A43EB030515F5001F12D8012841EB48
:103FB000010C1CF5001F0CD80ED14FEAD17C0CEB84
:103FC0004C0C0CF1020C15F5001F08BF4CEBD37C18
:103FD00004E04FF0080C01E04FEAD37C0CEB4C05F9
:103FE00026FA05F606F00706B6F1040C06D20EEB2B
:103FF000860CBDE870404CF0010C6047DFE80CF027
:10400000090B02024FF00041A1F500214FF0000022
:1040100070BD19461046012851EB010418BFD4F5B4
:10402000001484BF002001F0004170BD0808A0F515
:1040300000114FEA3101704710B591EA030F48BFF4
:1040400083F000433FF52CAE841A71EB030C07D2CA
:104050008CF0004C121943EB0C03001B61EB0C01BC
:104060004FEA1154A4EB135CDFF8A4E11EEA430FFE
:1040700018BF9EEA445F00F0B48021EA045123EAAD
:104080006E035242C3EB6E0338BF5B1EDCF1200EA1
:1040900025D322FA0CFE10EB0E0043FA0CFE41EB86
:1040A0000E01CCF1200E03FA0EFE10EB0E00CCF147
:1040B000200E51F1000129D401EB045112FA0EF245
:1040C000BDE8104058BF7047401C1CBFB2F1004F04
:1040D000704700280CBF491C20F00100704712EB0C
:1040E000020E43EB030218BF4FF0010E4EEA4202EC
:1040F000ACF1200CDCF11E0E56D943FA0CFE10EB8D
:104100000E00CCF11E0E51F1FF31D5D50EF1010E8E
:1041100012FA0EFE404141EB010101EB445C5FEA03
:104120005C5C10D901EB045110EBDE7038BFBEF1BE
:10413000004FBDE8104018BF704700280CBF491C55
:1041400020F00100704734D24FEAD42C24F40064EC
:1041500011F500111BD0B1FA81F20B3AA41AA41E7A
:10416000D2F12003914030FA03F31943904001EB60
:10417000CC7101EB0451002CBDE81040A8BF704782
:1041800001F1C04101F000414FF000007047B0FA6A
:1041900080F310FA03F102D1BDE810407047E41A31
:1041A000173C4805C90AE2E701EB0451BDE810409D
:1041B000704749104FEA300001EB0451BDE8104050
:1041C00002E04FF0000170474A0008BF0042F8D0FB
:1041D000B2F5001F28BF704701F000414FF000000A
:1041E00070479EEA445F07D011EA5E0FBDE81040B9
:1041F00004BF002100207047BDE8104070B5FFF7F4
:10420000C7FE00BF40DFF63E104683F00041704716
:104210000000E0FF43004FEAD30C4FEA3C0C434060
:104220001FBF40070CF1605113F0FE4F70471CF0A8
:10423000006F03D10CF00041002070470CF00043E8
:1042400043EA507040EACC0010B500F038F800BFE7
:10425000000000924FEA0001FFF7E8BE4FF0004176
:10426000A1F500214FF00000704710B5FFF7C4FD25
:104270000CBF0120002010BD10B5FFF7BDFD14BF1D
:104280000120002010BD10B5FFF70AFE8CBF0120F1
:10429000002010BD10B5FFF703FE2CBF0120002049
:1042A00010BD10B5FFF738FE94BF0120002010BDEF
:1042B00010B5FFF731FE34BF0120002010BD0EF114
:1042C000020E2EF0030E5EF8044B244204D44FEA93
:1042D0004102B2F17F4F11D84FEA4003B3F17F4F53
:1042E0000CD80ED14FEAD07C0CEB4C0C0CF1020C2C
:1042F000B2F17F4F08BF4CEBD17C04E04FF0080CCB
:1043000001E04FEAD17C0CEB4C0324FA03F404F0F7
:104310000704B4F1040C06D20EEB840CBDE8104087
:104320004CF0010C6047DFE80CF0070802024FF088
:104330000040A0F5800010BD0846420018BFD2F131
:10434000807288BF00F0004010BDF1EE100A4FF6F9
:10435000FF71C0F2C03120EA010040F04070E1EE90
:10436000100A7047FF2141EAD050C0057047000095
:104370000000000000000102030406070809000015
:1043800000000102030400061016000610160000CB
:10439000B84300080000002010000000C40100081D
:1043A000C843000810000020900A0000E001000847
:1043B0005DEEFFFF000000000100000010000000A3
:0843C0000024F40000000000DD
:040000050800018965
:00000001FF
