:020000040800F2
:10000000980A00202D0200086D3C00088539000880
:10001000693C000849040008F1460008000000009F
:10002000000000000000000000000000E13C0008AB
:100030007906000800000000DD3C0008393D00089A
:10004000470200084702000847020008470200086C
:10005000470200084702000847020008470200085C
:10006000470200084702000847020008470200084C
:10007000D1040008470200084702000847020008B0
:100080004702000847020008470200085D04000814
:100090004D04000847020008470200084702000814
:1000A000470200084702000847020008470200080C
:1000B00047020008470200084702000847020008FC
:1000C00047020008470200084702000847020008EC
:1000D000470200084702000847020008E1460008FE
:1000E00047020008470200084702000847020008CC
:1000F00047020008470200084702000847020008BC
:1001000047020008470200084702000847020008AB
:100110004702000847020008113E00084702000895
:10012000470200084702000847020008470200088B
:10013000470200084702000847020008470200087B
:10014000470200084702000847020008470200086B
:10015000470200084702000847020008470200085B
:10016000470200084702000847020008470200084B
:10017000470200084702000847020008000000008C
:10018000470200084702000800F002F800F03EF8BD
:100190000AA090E8000C82448344AAF10107DA45E2
:1001A00001D100F033F8AFF2090EBAE80F0013F0F6
:1001B000010F18BFFB1A43F00103184764570000F2
:1001C00084570000103A24BF78C878C1FAD8520783
:1001D00024BF30C830C144BF04680C6070470000C1
:1001E0000023002400250026103A28BF78C1FBD840
:1001F000520728BF30C148BF0B6070471FB505F0DC
:1002000072FB00F0D5F81FBD10B510BD00F0E2F88C
:100210001146FFF7F3FF05F0DFF800F000F903B433
:10022000FFF7F2FF03BC00F007F900000948804720
:1002300009480047FEE7FEE7FEE7FEE7FEE7FEE7C8
:10024000FEE7FEE7FEE7FEE704480549054A064BE0
:1002500070470000FD3D0008890100089804002057
:10026000980A0020980600209806002053EA020C05
:1002700000F069802DE9F04B4FF00006002B1FBF06
:10028000B3FA83F503FA05F424FA05F65E4012BFCB
:100290001643B2FA82F502FA05F4C5F120051EBF35
:1002A00022FA05FC44EA0C04203556EA044C4FEAD5
:1002B000144418BF641C4FF000084FF0000990422E
:1002C00071EB030C39D3002919BFB1FA81F701FA98
:1002D00007F6B0FA80F700FA07F6C7F120071EBF4D
:1002E00020FA07FC46EA0C062037B6FBF4FCA7EB25
:1002F0000507103F07F01F0BCBF120062CFA06F67E
:100300000CFA0BFB44BFB3460026202FA4BF5E4669
:100310004FF0000B5BEA060C08BF4FF0010B19EB26
:100320000B0948EB0608ABFB027C06FB02CC0BFB7F
:1003300003CCC01B71EB0C01C1E70B4602464146E2
:100340004846BDE8F08B13B5084318BF4FF0FF30A7
:100350000146AFF30080BDE81C4070474FF000023B
:1003600000B5134694469646203922BFA0E80C50AB
:10037000A0E80C50B1F12001BFF4F7AF090728BF86
:10038000A0E80C5048BF0CC05DF804EB890028BF02
:1003900040F8042B08BF704748BF20F8022B11F02B
:1003A000804F18BF00F8012B7047704770477047A7
:1003B00070B5064C7C44064D7D4404E0204601683F
:1003C00008448047241DAC42F8D170BD8855000018
:1003D00088550000754600F02BF8AE4605006946CA
:1003E000534620F00700854618B020B5FFF72CFFD4
:1003F000BDE820404FF000064FF000074FF0000826
:100400004FF0000BAC46ACE8C009ACE8C009ACE862
:10041000C009ACE8C00921F007018D46704710B54E
:100420000446AFF300802046BDE81040FFF7F7BE5A
:10043000004870471000002001491820ABBEFEE7BD
:100440002600020070470000FFE7FEE780B540F29B
:100450007C00C2F2000000F0C9FB80BD80B540F214
:100460007C00C2F2000000F0C1FB80BD80B58AB004
:10047000ADF82600ADF82410ADF822209DF8270035
:1004800040F27202C2F2000210709DF82600507015
:100490009DF8250090709DF82400D0709DF82300F1
:1004A00010719DF82200507100209071D0714FF4AE
:1004B00000710291049005900820069040F27C00A3
:1004C000C2F2000002A901AB00F006F90AB080BD3B
:1004D00080B540F2A400C2F2000000F0E7FF80BD4A
:1004E00082B001900198007810384AF6AB21CAF624
:1004F000AA21A0FB011000090090009945F61810F0
:10050000C0F60000405C0199C8650098042807D334
:10051000FFE701990868042262F30900886506E094
:100520000199086840F2FF3290438865FFE701981F
:10053000806D02B07047000086B0059000208DF8F5
:1005400013000598806A03900598806910BBFFE747
:100550000398029003281BD80299DFE801F0020DEE
:100560000218059890F82F00C00720B1FFE701207E
:100570008DF81300FFE70CE00598C06AB0F1C07F6A
:1005800004D1FFE701208DF81300FFE701E000E050
:10059000FFE745E005988069B0F5005F25D1FFE7EA
:1005A0000398019003281ED80199DFE801F00206A4
:1005B000021101208DF8130016E0059890F82F0025
:1005C000C00720B1FFE701208DF81300FFE70BE023
:1005D0000598C06AB0F1C07F04D1FFE701208DF813
:1005E0001300FFE700E0FFE719E0039800900328FD
:1005F00004D3FFE70098032804D00EE001208DF813
:1006000013000BE0059890F82F00C00720B1FFE71A
:1006100001208DF81300FFE700E0FFE7FFE7FFE7A9
:100620009DF8130006B0704784B0039002910192C8
:10063000009303980168086820F4802008600098FF
:1006400003990968486003988068402809D1FFE74A
:100650000198039909688860029803990968C8603D
:1006600008E002980399096888600198039909686D
:10067000C860FFE704B070477047000072B6FFE73C
:10068000FEE7000084B002900191029890F82000EB
:100690008DF803009DF80300012805D0FFE79DF8C1
:1006A000030002280AD1FFE7019A0298016848690D
:1006B0001043486100208DF80F0008E00299486A55
:1006C00040F48020486201208DF80F00FFE79DF87C
:1006D0000F0004B07047000088B0069005910492A6
:1006E0000393069890F820008DF80700069800689C
:1006F000806800900598806808B9FFE700E0FFE790
:100700009DF80700012806D0FFE79DF807000228A2
:1007100040F08080FFE79DF80300400700280CD4DC
:10072000FFE79DF803000007002806D4FFE79DF8C7
:100730000300C006002864D5FFE70098C0F30160FD
:10074000029002990120884003990860059880680A
:1007500068B9FFE705980168C06840EA415006990A
:100760000968029A01EB0211C1F880010EE00599B7
:100770004A688868C96840EAC2000843069909685F
:10078000029A01EB0211C1F88001FFE705980069A8
:1007900006990968029A01EB0211C1F884010598D3
:1007A000007D01280CD1FFE706980068029900EB54
:1007B0000111D1F8840140F48070C1F88401FFE791
:1007C0000498406806990968029A01EB0211C1F881
:1007D0008C010498006806990968029A01EB0211DD
:1007E000C1F8880106980068029900EB0111D1F860
:1007F000800140F00100C1F8800100208DF81F0049
:1008000011E00699486A40F40010486201208DF812
:100810001F0008E00699486A40F4802048620120E1
:100820008DF81F00FFE79DF81F0008B0704700001B
:1008300086B004900391049890F820008DF803008E
:100840009DF80300012806D0FFE79DF80300022869
:1008500040F0B080FFE746F20040C4F20000019093
:100860000199D1F8000240F00100C1F8000201999D
:10087000D1F8000220F47C50C1F800020398426ACB
:100880000199D1F8000240EA0220C1F80002039861
:10089000406900F01F01012088400290029A0199EE
:1008A000D1F81C029043C1F81C020398C069F0B94A
:1008B000FFE7029A0199D1F80C029043C1F80C02AB
:1008C000039A9088D168526940EA0140019901EB8E
:1008D000C201C1F84002039A10889168526940EA47
:1008E0000140019901EBC201C1F84402FFE70398FE
:1008F000C06901281ED1FFE7029A0199D1F80C02C4
:100900001043C1F80C02039A90881168526940EABA
:100910000140019901EBC201C1F84002039A90899C
:100920009168526940EA0140019901EBC201C1F8A6
:100930004402FFE70398806940B9FFE7029A0199F2
:10094000D1F804029043C1F8040207E0029A019929
:10095000D1F804021043C1F80402FFE703980069CC
:1009600040B9FFE7029A0199D1F814029043C1F807
:10097000140207E0029A0199D1F814021043C1F859
:100980001402FFE70398006A012808D1FFE7029AE2
:100990000199D1F81C021043C1F81C02FFE701992C
:1009A000D1F8000220F00100C1F8000200208DF80B
:1009B000170008E00499486A40F48020486201204A
:1009C0008DF81700FFE79DF8170006B0704700008C
:1009D00081B0009001B0704786B0049003910292FC
:1009E0000193049890F820008DF803009DF803000F
:1009F000012806D0FFE79DF80300022840F0E880B8
:100A0000FFE7039880B9FFE704980068C068800793
:100A100048B9FFE70499486A40F400104862012091
:100A20008DF81700DDE00FE004980068006980078A
:100A300048B9FFE70499486A40F400104862012071
:100A40008DF81700CDE0FFE704980068039900EBEC
:100A50000110D0F8B00100F00400029988600298FB
:100A6000806858B9FFE704980068039900EB01100B
:100A7000D0F8B001400D029908600AE004980068BF
:100A8000039900EB0110D0F8B001C008029948604A
:100A9000FFE704980068039900EB0110D0F8B0015B
:100AA00000F002000299C86004980068039900EB06
:100AB0000110D0F8B40100F00F00082804D3FFE7BC
:100AC0000299082008610BE004980068039900EB84
:100AD0000110D0F8B40100F00F0002990861FFE79F
:100AE00004980068039900EB0110D0F8B40180B2BB
:100AF000000A0299886104980068039900EB0110CC
:100B0000D0F8B401000C0299486104980068039978
:100B100000EB0110D0F8B801019908700498006842
:100B2000039900EB0110D0F8B801000A0199487050
:100B300004980068039900EB0110D0F8B801000C8C
:100B40000199887004980068039900EB0110D0F8AF
:100B5000B801000E0199C87004980068039900EB71
:100B60000110D0F8BC01019908710498006803993C
:100B700000EB0110D0F8BC01000A019948710498FB
:100B80000068039900EB0110D0F8BC01000C01993A
:100B9000887104980068039900EB0110D0F8BC013B
:100BA000000E0199C871039838B9FFE704980168ED
:100BB000C86840F02000C86006E004980168086931
:100BC00040F020000861FFE700208DF8170008E0E2
:100BD0000499486A40F48020486201208DF817008B
:100BE000FFE79DF8170006B07047000080B58AB097
:100BF00009900020089009980068406907900998BA
:100C00000068406806900998006880680590099817
:100C10000068C0680490099800680069039009980A
:100C20000068806902909DF81C00C007002800F051
:100C30009480FFE79DF81400C00758B3FFE70998B8
:100C40000168012088609DF814008007002804D501
:100C5000FFE7099800F07AFB1BE09DF814004007BD
:100C6000002805D5FFE7089840F4006008900FE0E1
:100C70009DF814000007002805D5FFE7089840F408
:100C80008050089003E0099800F05CFBFFE7FFE765
:100C9000FFE7FFE79DF81500C00760B3FFE709987D
:100CA00001684FF4807088609DF815008007002867
:100CB00004D5FFE7099800F051FB1BE09DF81500F3
:100CC0004007002805D5FFE7089840F40050089039
:100CD0000FE09DF815000007002805D5FFE70898EC
:100CE00040F48040089003E0099800F033FBFFE7F0
:100CF000FFE7FFE7FFE79DF81600C00760B3FFE7D7
:100D0000099801684FF4803088609DF816008007CC
:100D1000002804D5FFE7099800F028FB1BE09DF8A8
:100D200016004007002805D5FFE7089840F400406A
:100D300008900FE09DF816000007002805D5FFE792
:100D4000089840F48030089003E0099800F00AFB0E
:100D5000FFE7FFE7FFE7FFE7FFE79DF81C0000075D
:100D6000002810D5FFE79DF81000C006002809D51F
:100D7000FFE7089840F40070089009980168102077
:100D8000C860FFE7FFE79DF81C00400700280FD56B
:100D9000FFE79DF810000007002808D5FFE7099835
:100DA00001680820C860099800F064FAFFE7FFE7CF
:100DB0009DF81C00800700280BD5FFE70998006804
:100DC000C068800720B1FFE7099800F057FAFFE7F5
:100DD000FFE79DF81C004006002810D5FFE79DF8AE
:100DE0000C00C006002809D5FFE7089840F4806091
:100DF00008900998016810200861FFE7FFE79DF857
:100E00001C00800600280FD5FFE79DF80C000007A6
:100E1000002808D5FFE709980168082008610998AB
:100E200000F03EFAFFE7FFE79DF81C00C00600282F
:100E30000BD5FFE7099800680069800720B1FFE73C
:100E4000099800F031FAFFE7FFE79DF81E008007E0
:100E500000280FD5FFE79DF81800C006002808D528
:100E6000FFE70998016810204860099800F020FA0F
:100E7000FFE7FFE79DF81E00C00778B1FFE79DF888
:100E800018000007002808D5FFE709980168082026
:100E90004860099800F06EFAFFE7FFE79DF81D0033
:100EA0000006002840F18D80FFE79DF818004007FC
:100EB000002840F18180FFE79DF81D00C00750B178
:100EC000FFE79DF80800C00728B1FFE7089840F049
:100ED00001000890FFE79DF81D00800700280BD552
:100EE000FFE79DF808008007002805D5FFE7089870
:100EF00040F002000890FFE79DF81D004007002821
:100F00000BD5FFE79DF808004007002805D5FFE74F
:100F1000089840F004000890FFE79DF81D000007C6
:100F2000002848D5FFE79DF8080010F0700F42D068
:100F3000FFE7029800F0700001460191102814D0DC
:100F4000FFE70198202815D0FFE70198302816D038
:100F5000FFE70198402817D0FFE70198502818D0E4
:100F6000FFE70198602819D01DE0089840F00800BC
:100F7000089019E0089840F01000089014E00898D4
:100F800040F0200008900FE0089840F040000890E2
:100F90000AE0089840F08000089005E0089840F4C6
:100FA0008070089000E0FFE709980168886920F0E8
:100FB00070008861FFE7FFE7099801680420486036
:100FC000FFE7089848B1FFE7089A0999486A104373
:100FD00048620998FFF7FCFCFFE70AB080BD0000FB
:100FE00080B584B00290029820B9FFE701208DF807
:100FF0000F00E0E0029890F8200020B9FFE7029887
:1010000000F0DEF8FFE702980168086840F0010090
:10101000086000F0E9FE0190FFE702980068406870
:10102000C007A8B9FFE700F0DFFE0199401A0B28BE
:101030000DD3FFE70299486A40F4003048620299F4
:10104000052081F8200001208DF80F00B3E0E4E7CF
:1010500002980168086820F00200086000F0C4FEF1
:101060000190FFE70298006840688007002815D5C6
:10107000FFE700F0B9FE0199401A0B280DD3FFE7F6
:101080000299486A40F4003048620299052081F8CC
:10109000200001208DF80F008DE0E3E70298007E2C
:1010A000012807D1FFE702980168086840F0800036
:1010B000086006E002980168086820F08000086077
:1010C000FFE70298407E012807D1FFE702980168F8
:1010D000086840F04000086006E00298016808686F
:1010E00020F040000860FFE70298807E012807D1C9
:1010F000FFE702980168086840F02000086006E0F9
:1011000002980168086820F020000860FFE7029854
:10111000C07E012807D1FFE702980168086820F027
:101120001000086006E002980168086840F01000AE
:101130000860FFE70298007F012807D1FFE70298C7
:101140000168086840F00800086006E0029801683D
:10115000086820F008000860FFE70298407F012837
:1011600007D1FFE702980168086840F004000860B2
:1011700006E002980168086820F004000860FFE7B4
:10118000029B19685A689868D3F80CC040EA0C00B2
:10119000D3F810C040EA0C005B691843013A1043D1
:1011A000C861029900204862029A012182F8201049
:1011B0008DF80F00FFE79DF80F0004B080BD000020
:1011C00080B58CB00B9000200A9009900890079091
:1011D00006900B98006846F20041C4F20001884274
:1011E00046D1FFE7FFE70020059043F64000C4F238
:1011F0000200016841F000710160006800F00070B9
:1012000005900598FFE7FFE70020049043F63000C3
:10121000C4F20200016841F008010160006800F0BA
:10122000080004900498FFE703200690022107912C
:10123000002102910891099009200A9040F600408F
:10124000C4F2020006A900F0DBFB029A1320019011
:10125000114600F061FE019800F054FE029A14203D
:101260000390114600F058FE039800F04BFEFFE794
:101270000CB080BD81B0009001B0704780B58AB0DD
:1012800009900998002102AA6B46FFF7A5FB28B92F
:10129000FFE70298694604F0D3F8FFE70AB080BD83
:1012A00081B0009001B0704781B0009001B07047EC
:1012B00081B0009001B0704780B584B00290029870
:1012C00090F8200001282FD1FFE70299022081F831
:1012D000200002980168086820F00100086000F012
:1012E00083FD0190FFE7029800684068C007A8B13D
:1012F000FFE700F079FD0199401A0B280DD3FFE7B5
:101300000299486A40F4003048620299052081F849
:10131000200001208DF80F000FE0E4E70299002083
:1013200048628DF80F0008E00299486A40F40020F6
:10133000486201208DF80F00FFE79DF80F0004B010
:1013400080BD000081B0009001B0704781B0009076
:1013500001B0704781B0009001B0704781B000903B
:1013600001B0704781B0009001B0704781B000902B
:1013700001B0704781B0009001B0704780B584B073
:1013800002900298806D019000F02EFD009002986E
:1013900090F8350002280DD0FFE7029980204865BB
:1013A000FFE70299002081F83400FFE701208DF863
:1013B0000F0055E002980168086820F016000860E8
:1013C00002980168486920F0800048610298006C2A
:1013D00020B9FFE70298806C38B1FFE702980168F6
:1013E000086820F008000860FFE7029801680868B4
:1013F00020F001000860FFE7029800680068C0075D
:10140000C8B1FFE700F0F0FC0099401A062811D39C
:10141000FFE70299202048650299032081F83500F2
:10142000FFE70299002081F83400FFE703208DF8E0
:101430000F0015E0E0E70298C16D3F208840019958
:1014400088600299012081F83500FFE702990020A9
:1014500081F83400FFE7FFE700208DF80F00FFE779
:101460009DF80F0004B080BD82B00090009890F805
:101470003500022807D0FFE7009980204865012049
:101480008DF807000EE00099052081F835000098DE
:101490000168086820F001000860FFE700208DF86F
:1014A0000700FFE79DF8070002B0704780B586B0DF
:1014B00005900020039040F20000C2F20000006896
:1014C00048F2B511C1F64E31A0FB0110800A02901E
:1014D0000598806D01900198006804900498059922
:1014E000C96DC840000700281AD5FFE705980068B5
:1014F00000684007002812D5FFE7059801680868D2
:1015000020F0040008600598C16D0820884001990A
:1015100088600599486D40F001004865FFE7FFE7E6
:1015200004980599C96DC840C007A0B1FFE70598A8
:1015300000684069000600280CD5FFE70598C16DDA
:1015400001208840019988600599486D40F00200AB
:101550004865FFE7FFE704980599C96DC840400753
:10156000002814D5FFE70598006800688007002868
:101570000CD5FFE70598C16D04208840019988606B
:101580000599486D40F004004865FFE7FFE70498BF
:101590000599C96DC840C006002847D5FFE70598E2
:1015A00000680068000700283FD5FFE70598C16D77
:1015B0001020884001998860059800680068400301
:1015C00000281AD5FFE70598006800680003002886
:1015D00009D4FFE70598006C20B1FFE70598016C7E
:1015E0008847FFE708E00598806C20B1FFE7059881
:1015F000816C8847FFE7FFE716E005980068006800
:10160000C005002807D4FFE705980168086820F0A6
:1016100008000860FFE70598006C20B1FFE7059817
:10162000016C8847FFE7FFE7FFE7FFE704980599AC
:10163000C96DC8408006002840F18D80FFE70598FD
:1016400000680068C006002840F18480FFE7059824
:10165000C16D2020884001998860059890F8350078
:10166000052834D1FFE705980168086820F01600C6
:10167000086005980168486920F080004861059875
:10168000006C20B9FFE70598806C38B1FFE705983A
:101690000168086820F008000860FFE70598C16D40
:1016A0003F208840019988600599012081F8350024
:1016B000FFE70599002081F83400FFE70598006DE9
:1016C00020B1FFE70598016D8847FFE77BE00598AB
:1016D00000680068400300281AD5FFE705980068F5
:1016E00000680003002809D4FFE70598406C20B18A
:1016F000FFE70598416C8847FFE708E00598C06B55
:1017000020B1FFE70598C16B8847FFE7FFE720E0BE
:10171000059800680068C005002811D4FFE7059807
:101720000168086820F0100008600599012081F820
:101730003500FFE70599002081F83400FFE7FFE757
:101740000598C06B20B1FFE70598C16B8847FFE79C
:10175000FFE7FFE7FFE70598406DA0B3FFE70598B7
:10176000406DC00730B3FFE70599052081F83500CB
:1017700005980168086820F001000860FFE70398F9
:10178000013003900299884201D9FFE707E0FFE7A3
:10179000059800680068C0070028F0D1FFE70599A8
:1017A000012081F83500FFE70599002081F8340019
:1017B000FFE7FFE70598C06C20B1FFE70598C16C13
:1017C0008847FFE7FFE706B080BD000080B586B020
:1017D00004900020039000F007FB0290049820B9C9
:1017E000FFE701208DF81700A3E00498406A08B1D4
:1017F000FFE7FFE70499022081F83500FFE704992D
:10180000002081F83400FFE704980168086820F0A0
:1018100001000860FFE7049800680068C00790B105
:10182000FFE700F0E1FA0299401A06280AD3FFE721
:101830000499202048650499032081F835008DF82B
:10184000170076E0E7E704980068006803900398C3
:1018500048F23F01CFF21001084003900499009133
:101860004868D1F808C0CB680A6940EA0C00184300
:1018700010434A6910438A691043CA691043096AD0
:1018800001430398084303900498406A042808D150
:10189000FFE70499C86A096B014303980843039062
:1018A000FFE7039804990968086004980068406994
:1018B0000390039820F0070003900498416A03986E
:1018C000084303900498406A04281AD1FFE704985B
:1018D000816A0398084303900498C06A80B1FFE7C7
:1018E0000498FEF729FE50B1FFE7049940204865AF
:1018F0000499012081F835008DF8170019E0FFE701
:10190000FFE703980499096848610498FEF7E8FD29
:1019100001900498C16D3F20884001998860049926
:1019200000204865049A012182F835108DF81700CF
:10193000FFE79DF8170006B080BD000080B588B0B5
:10194000069005910492039300208DF80B000698F1
:10195000806D0190FFE7069890F83400012804D1CB
:10196000FFE702208DF81F0045E00699012081F86D
:101970003400FFE7FFE7069890F8350001282BD1E7
:10198000FFE70699022081F8350006990020486596
:1019900006980599049A039BFEF746FE0698C16DCA
:1019A0003F2088400199886006980168086840F0E7
:1019B000160008600698006C38B1FFE706980168C9
:1019C000086840F008000860FFE7069801680868AA
:1019D00040F00100086009E0FFE70699002081F867
:1019E0003400FFE702208DF80B00FFE79DF80B00A5
:1019F0008DF81F00FFE79DF81F0008B080BD0000B4
:101A00008EB00D900C9100200A90099008900B90D8
:101A1000FFE70B980F2800F2CC81FFE70B9901201C
:101A200088400A900C9800680A9908400990099823
:101A30000A99884240F0B881FFE70C98406800F0AE
:101A40000300012807D0FFE70C98406800F003006E
:101A500002282FD1FFE70D98806808900B9841006D
:101A6000032000FA01F10898884308900C98C06898
:101A70000B99490000FA01F108980843089008986A
:101A80000D9988600D98406808900B99012000FA24
:101A900001F10898884308900C984068C0F3001042
:101AA0000B9900FA01F108980843089008980D99DD
:101AB0004860FFE70C98406800F00300032818D046
:101AC000FFE70D98C06808900B984100032000FACA
:101AD00001F10898884308900C9880680B99490098
:101AE00000FA01F108980843089008980D99C86019
:101AF000FFE70C98406800F00300022826D1FFE7BA
:101B00000D980B996FF0030202EA51010844006A34
:101B100008900B9800F0070081000F2000FA01F1F7
:101B20000898884308900C9800690B9901F0070108
:101B3000890000FA01F108980843089008980D9967
:101B40000B9B02EA530211440862FFE70D980068FC
:101B500008900B984100032000FA01F1089888438F
:101B600008900C98406800F003000B99490000FAB7
:101B700001F108980843089008980D9908600C989E
:101B800080798007002800F00E81FFE7FFE7002042
:101B9000079043F64400C4F20200016841F480411A
:101BA0000160006800F4804007900798FFE70B98F9
:101BB00020F0030043F60801C4F2010140580890E8
:101BC0000B9800F0030081000F2000FA01F1089843
:101BD000884308900D980021C4F20201884203D185
:101BE000FFE7002006905EE00D9840F20041C4F24D
:101BF0000201884203D1FFE70120059050E00D98D3
:101C000040F60001C4F20201884203D1FFE702203E
:101C1000049042E00D9840F60041C4F2020188426F
:101C200003D1FFE70320039034E00D9841F2000157
:101C3000C4F20201884203D1FFE70420029026E0AB
:101C40000D9841F20041C4F20201884203D1FFE73E
:101C50000520019018E00D9841F60001C4F2020140
:101C6000884203D1FFE7062000900AE00D9941F673
:101C70000042C4F202020820914208BF07200090EF
:101C8000FFE700980190FFE701980290FFE70298B4
:101C90000390FFE703980490FFE704980590FFE79F
:101CA00005980690FFE70698C0B20B9901F0030172
:101CB000890000FA01F108980843089008980B99E8
:101CC00021F0030143F60802C4F20102885043F6F2
:101CD0000840C4F2010000680890099908988843F8
:101CE00008900C988079C006002805D5FFE709996F
:101CF000089808430890FFE7089843F60841C4F2A3
:101D00000101086043F60C40C4F20100006808902D
:101D100009990898884308900C98807980060028D3
:101D200005D5FFE70999089808430890FFE7089848
:101D300043F60C41C4F20101086043F60440C4F2CA
:101D400001000068089009990898884308900C9849
:101D500080798007002805D5FFE70999089808438E
:101D60000890FFE7089843F60441C4F201010860B7
:101D700043F60040C4F201000068089009990898F1
:101D8000884308900C988079C00728B1FFE709992B
:101D9000089808430890FFE7089843F60041C4F20A
:101DA00001010860FFE7FFE7FFE70B9801300B90A8
:101DB0002FE60EB07047000082B00190ADF802101F
:101DC0008DF801209DF8010028B1FFE7BDF8020061
:101DD0000199886105E0BDF802000004019988615D
:101DE000FFE702B07047000040F29440C2F20000EA
:101DF0000068704740F20400C2F20000027840F22E
:101E00009441C2F200010868104408607047000065
:101E100080B543F60041C4F20201086840F4007046
:101E20000860086840F480600860086840F48070CA
:101E30000860032000F08AF80F2000F005F800F099
:101E40003BF8002080BD000080B582B0009040F2D9
:101E50000000C2F20000006840F20401C2F200017A
:101E60000A784FF47A71B1FBF2F1B0FBF1F000F0B7
:101E70006DFE20B1FFE701208DF8070018E0009803
:101E80000F280DD8FFE700994FF0FF30002200F037
:101E900043F8009840F20801C2F20001086003E034
:101EA00001208DF8070003E000208DF80700FFE710
:101EB0009DF8070002B080BD82B0FFE700200190CE
:101EC00043F64400C4F20200016841F4804101601D
:101ED000006800F4804001900198FFE7FFE70020D0
:101EE000009043F64000C4F20200016841F08051C6
:101EF0000160006800F0805000900098FFE702B099
:101F00007047000080B582B08DF807009DF907008A
:101F100003F048F902B080BD80B586B08DF8170097
:101F2000049103920020029003F054F902909DF96D
:101F30001700019002980499039A01F099FE014656
:101F4000019803F04FF906B080BD000080B582B063
:101F50000190019803F068F902B080BD80B584B0AB
:101F600002900191029820B9FFE701208DF80F003F
:101F700021E1019843F60041C4F20201096801F031
:101F80000701884212D9FFE7019943F60040C4F2E5
:101F900002000170006800F007000199884204D037
:101FA000FFE701208DF80F0005E1FFE702980078B8
:101FB000800700282AD5FFE702980078400700280C
:101FC00009D5FFE743F60801C4F20201086840F4AE
:101FD000E0500860FFE7029800780007002809D564
:101FE000FFE743F60801C4F20201086840F46040CC
:101FF0000860FFE743F60801C4F20201086820F018
:10200000F000029A926810430860FFE70298007897
:10201000C00700286ED0FFE702984068012811D160
:10202000FFE743F60000C4F20200006800F400314C
:102030000020B0EB514F04D1FFE701208DF80F00D5
:10204000B9E02CE002984068022805D0FFE702982A
:102050004068032811D1FFE743F60000C4F20200F4
:10206000006800F000710020B0EB516F04D1FFE771
:1020700001208DF80F009EE010E043F60000C4F24E
:102080000200006800F002010020B0EB510F04D103
:10209000FFE701208DF80F008DE0FFE7FFE743F633
:1020A0000801C4F20201086820F00300029A526895
:1020B00010430860FFF798FE0090FFE743F6080022
:1020C000C4F20200006800F00C0002994968B0EB0D
:1020D000810F0ED0FFE7FFF787FE0099401A41F20B
:1020E0008931884204D3FFE703208DF80F0062E0B6
:1020F000E4E7FFE7019843F60041C4F202010968F2
:1021000001F00701884212D2FFE7019943F600402F
:10211000C4F202000170006800F0070001998842D3
:1021200004D0FFE701208DF80F0044E0FFE702989C
:102130000078400700280CD5FFE743F60801C4F2F9
:102140000201086820F4E050029AD2681043086047
:10215000FFE702980078000700280DD5FFE743F657
:102160000801C4F20201086820F46040029A126972
:1021700040EAC2000860FFE700F04CF843F60801AF
:10218000C4F202010968C9B20A0945F60011C0F695
:102190000001895CC84040F20001C2F20001086001
:1021A00040F20800C2F200000068FFF74DFE002078
:1021B0008DF80F00FFE79DF80F0004B080BD000010
:1021C00040F20000C2F200000068704780B5FFF7DF
:1021D000F7FF43F60801C4F202010968C1F3822245
:1021E00045F61011C0F60001895CC84080BD0000B2
:1021F00080B5FFF7E5FF43F60801C4F20201096864
:1022000089B24A0B45F61011C0F60001895CC8403E
:1022100080BD000080B586B000200590049003903A
:10222000029043F60800C4F20200006800F00C00BF
:102230000146019140B1FFE7019804280AD0FFE769
:10224000019808280CD04FE042F20040C0F2F400A0
:1022500002904FE041F60030C0F2B700029049E032
:1022600043F60400C4F20200016801F03F01059149
:1022700000684002002813D5FFE743F60400C4F2CB
:1022800002000068C0F3881041F60031C0F2B701C7
:10229000A0FB0101059A0023FDF7E8FF049012E07E
:1022A00043F60400C4F202000068C0F3881042F252
:1022B0000041C0F2F401A0FB0101059A0023FDF7E3
:1022C000D5FF0490FFE743F60400C4F20200006863
:1022D00000F44031022000EBD130039004980399C0
:1022E000B0FBF1F0029005E042F20040C0F2F400D1
:1022F0000290FFE7029806B080BD000080B586B06E
:102300000490049820B9FFE701208DF8170050E3EE
:1023100004980078C007002800F0A580FFE743F686
:102320000800C4F20200006800F00C00042813D07A
:10233000FFE743F60800C4F20200006800F00C005A
:1023400008281ED1FFE743F60400C4F2020000682B
:102350004002002815D5FFE743F60000C4F2020052
:10236000006800F400310020B0EB514F08D0FFE7C7
:102370000498406820B9FFE701208DF8170018E3A2
:1023800070E0FFE704984068B0F5803F09D1FFE7AF
:1023900043F60001C4F20201086840F4803008608E
:1023A00020E004984068B0F5A02F0DD1FFE743F678
:1023B0000001C4F20201086840F480200860086847
:1023C00040F4803008600CE043F60001C4F20201E2
:1023D000086820F480300860086820F480200860D5
:1023E000FFE7FFE7FFE704984068E8B1FFE7FFF782
:1023F000FBFC0390FFE743F60000C4F20200006814
:1024000000F400310020B0EB514F0CD1FFE7FFF793
:10241000EBFC0399401A652804D3FFE703208DF8ED
:102420001700C6E2E7E71CE0FFF7DEFC0390FFE7DA
:1024300043F60000C4F20200006800F400310020FE
:10244000B0EB514F0CD0FFE7FFF7CEFC0399401AD9
:10245000652804D3FFE703208DF81700A9E2E7E71A
:10246000FFE7FFE7FFE7049800788007002840F1C6
:102470009680FFE743F60800C4F20200006810F0FF
:102480000C0F13D0FFE743F60800C4F20200006807
:1024900000F00C0008282CD1FFE743F60400C4F23A
:1024A000020000684002002823D4FFE743F6000042
:1024B000C4F20200006800F002010020B0EB510FEE
:1024C00009D0FFE70498C068012804D0FFE7012085
:1024D0008DF817006DE243F60001C4F202010868AE
:1024E00020F0F800049A126940EAC2000860FFE791
:1024F00054E00498C06870B3FFE70021C4F247219C
:1025000001200860FFF770FC0390FFE743F600002E
:10251000C4F20200006800F002010020B0EB510F8D
:102520000CD1FFE7FFF760FC0399401A032804D39E
:10253000FFE703208DF817003BE2E7E743F60001D1
:10254000C4F20201086820F0F800049A126940EA17
:10255000C200086021E00021C4F247210020086089
:10256000FFF742FC0390FFE743F60000C4F20200CD
:10257000006800F002010020B0EB510F0CD0FFE723
:10258000FFF732FC0399401A032804D3FFE7032026
:102590008DF817000DE2E7E7FFE7FFE7FFE7049894
:1025A0000078000700284BD5FFE70498406918B36E
:1025B000FFE740F68061C4F2472101200860FFF781
:1025C00013FC0390FFE743F67400C4F202000068B6
:1025D00000F002010020B0EB510F0CD1FFE7FFF734
:1025E00003FC0399401A032804D3FFE703208DF866
:1025F0001700DEE1E7E722E040F68061C4F2472100
:1026000000200860FFF7F0FB0390FFE743F674003B
:10261000C4F20200006800F002010020B0EB510F8C
:102620000CD0FFE7FFF7E0FB0399401A032804D31F
:10263000FFE703208DF81700BBE1E7E7FFE7FFE7BF
:10264000049800784007002840F1CE80FFE7002082
:102650008DF8070043F64000C4F202000068C00095
:10266000002815D4FFE7FFE70020009043F6400064
:10267000C4F20200016841F080510160006800F07E
:10268000805000900098FFE701208DF80700FFE7D9
:1026900047F20000C4F200000068C005002822D400
:1026A000FFE747F20001C4F20001086840F48070BF
:1026B0000860FFF799FB0390FFE747F20000C4F2C0
:1026C00000000068C00500280CD4FFE7FFF78CFB72
:1026D0000399401A032804D3FFE703208DF817005D
:1026E00067E1EAE7FFE7FFE704988068012809D17E
:1026F000FFE743F67001C4F20201086840F00100F0
:1027000008601FE00498806805280DD1FFE743F6B4
:102710007001C4F20201086840F004000860086813
:1027200040F0010008600CE043F67001C4F20201C1
:10273000086820F001000860086820F004000860C4
:10274000FFE7FFE7FFE704988068F8B1FFE7FFF7CE
:102750004BFB0390FFE743F67000C4F202000068F1
:1027600000F002010020B0EB510F0ED1FFE7FFF7A0
:102770003BFB0399401A41F28931884204D3FFE7B9
:1027800003208DF8170014E1E5E71EE0FFF72CFBAE
:102790000390FFE743F67000C4F20200006800F007
:1027A00002010020B0EB510F0ED0FFE7FFF71CFB3A
:1027B0000399401A41F28931884204D3FFE703208C
:1027C0008DF81700F5E0E5E7FFE79DF80700012821
:1027D00009D1FFE743F64001C4F20201086820F086
:1027E00080500860FFE7FFE704988069002800F048
:1027F000DC80FFE743F60800C4F20200006800F046
:102800000C00082800F08580FFE704988069022802
:102810005CD1FFE76021C4F2472100200860FFF788
:10282000E3FA0390FFE743F60000C4F202000068F9
:1028300000F000710020B0EB516F0CD0FFE7FFF704
:10284000D3FA0399401A032804D3FFE703208DF835
:102850001700AEE0E7E70499C869D1F820C04B6AD9
:102860008A6A40EA0C0040EA8310D2034FF6FF73F5
:102870009A43A2F580321043C96A40EA016043F6E8
:102880000401C4F2020108606021C4F24721012062
:102890000860FFF7A9FA0390FFE743F60000C4F2CF
:1028A0000200006800F000710020B0EB516F0CD105
:1028B000FFE7FFF799FA0399401A032804D3FFE7CB
:1028C00003208DF8170074E0E7E721E06021C4F2EF
:1028D000472100200860FFF787FA0390FFE743F6DF
:1028E0000000C4F20200006800F000710020B0EBAC
:1028F000516F0CD0FFE7FFF777FA0399401A0328CE
:1029000004D3FFE703208DF8170052E0E7E7FFE765
:102910004AE004988069012804D1FFE701208DF87E
:10292000170046E043F60400C4F20200006802907B
:1029300004988069012831D0FFE7029800F48000F4
:102940000499C969884229D1FFE7029800F03F0045
:102950000499096A884221D1FFE7029847F6C071BD
:1029600008400499496AB0EB811F17D1FFE702982C
:1029700000F440300499896AC9034FF6FF7291430D
:10298000A1F58031884209D1FFE7029800F070601C
:102990000499C96AB0EB016F04D0FFE701208DF8FC
:1029A000170006E0FFE7FFE7FFE700208DF81700BC
:1029B000FFE79DF8170006B080BD000080B584B029
:1029C0000290029820B9FFE701208DF80F0071E016
:1029D0000298406A60B9FFE702984068B0F5827FCC
:1029E00001D1FFE703E002990020C861FFE705E09D
:1029F00002990020086102994861FFE702990020CE
:102A00008862029890F8510040B9FFE702990020CF
:102A100081F85000029800F051F8FFE70299022077
:102A200081F8510002980168086820F040000860B1
:102A3000029A019211685068D2F808C0D36800F475
:102A400082700CF4044C604403F40063184413696E
:102A500003F002031844536903F001031844936917
:102A600003F400731844D36903F038031844136A5D
:102A700003F080031843926A02F400521043086086
:102A8000029A508B00F004001168526A02F01002A2
:102A90001044486002980168C86920F40060C86169
:102AA000029900204865029A012182F851108DF8A0
:102AB0000F00FFE79DF80F0004B080BD80B588B01F
:102AC00007900020069005900490039002900798CC
:102AD000006843F20001C4F20101884234D1FFE7EB
:102AE000FFE70020019043F64400C4F202000168B1
:102AF00041F480510160006800F480500190019819
:102B0000FFE7FFE70020009043F63000C4F2020028
:102B1000016841F002010160006800F002000090CD
:102B20000098FFE7382002900220039000200490D4
:102B3000032005900520069040F20040C4F20200F8
:102B400002A9FEF75DFFFFE708B080BD80B582B047
:102B50000190019801F0C6F802B080BD81B00090EC
:102B600001B0704781B0009001B0704785B003900C
:102B70000291FFE7039890F83C00012804D1FFE799
:102B800002208DF813007EE00399012081F83C00BB
:102B9000FFE7FFE70399022081F83D0003980068F2
:102BA000406801900398006880680090019820F0C8
:102BB0007000019002980168019808430190019803
:102BC000039909684860039800680021C4F2010174
:102BD00088423CD0FFE703980068B0F1804F36D0C0
:102BE000FFE70398006840F20041C4F20001884208
:102BF0002DD0FFE70398006840F60001C4F2000101
:102C0000884224D0FFE70398006840F60041C4F2F0
:102C1000000188421BD0FFE70398006840F20041A2
:102C2000C4F20101884212D0FFE70398006844F221
:102C30000001C4F20101884209D0FFE7039800684F
:102C400041F60001C4F2000188420ED1FFE700986E
:102C500020F080000090029841680098084300909E
:102C60000098039909688860FFE70399012081F8BB
:102C70003D00FFE70399002081F83C00FFE70020BA
:102C80008DF81300FFE79DF8130005B070470000B2
:102C900080B582B00090009820B9FFE701208DF840
:102CA00007003FE0009890F83D0040B9FFE7009929
:102CB000002081F83C00009800F038F8FFE7009908
:102CC000022081F83D00009951F8040B01F0A8F8AA
:102CD0000099012081F84600FFE70099012081F862
:102CE0003E00009981F83F00009981F8400000996A
:102CF00081F84100FFE7FFE70099012081F84200D9
:102D0000009981F84300009981F84400009981F806
:102D10004500FFE70099012081F83D0000208DF873
:102D20000700FFE79DF8070002B080BD80B584B0C2
:102D300003900398006841F20001C4F20001884248
:102D40001BD1FFE7FFE70020029043F64000C4F2EA
:102D50000200016841F010010160006800F01000FD
:102D600002900298FFE73620019000221146FFF7FB
:102D7000D3F80198FFF7C6F8FFE704B080BD000064
:102D800083B00190019890F83D00012804D0FFE73E
:102D900001208DF80B006AE00199022081F83D00C6
:102DA00001980168C86840F00100C8600198006897
:102DB0000021C4F2010188423CD0FFE7019800687D
:102DC000B0F1804F36D0FFE70198006840F2004133
:102DD000C4F2000188422DD0FFE70198006840F658
:102DE0000001C4F20001884224D0FFE70198006886
:102DF00040F60041C4F2000188421BD0FFE7019871
:102E0000006840F20041C4F20101884212D0FFE79D
:102E10000198006844F20001C4F20101884209D01F
:102E2000FFE70198006841F60001C4F20001884202
:102E300012D1FFE701980068806800F00700009059
:102E40000098062807D0FFE701980168086840F05D
:102E500001000860FFE706E001980168086840F09B
:102E600001000860FFE700208DF80B00FFE79DF8E8
:102E70000B0003B07047000081B0009001B07047B4
:102E800080B584B0039003980068C06802900398EE
:102E90000068006901909DF804008007002824D58F
:102EA000FFE79DF80800800700281DD5FFE703987D
:102EB00001686FF002000861039901200877039808
:102EC00000688069800720B1FFE70398FFF7D4FF0F
:102ED00006E0039800F0E2F8039800F0E3F8FFE75B
:102EE000039900200877FFE7FFE79DF804004007FB
:102EF000002825D5FFE79DF80800400700281ED5CB
:102F0000FFE7039801686FF004000861039902204D
:102F1000087703980068806910F4407F04D0FFE7C9
:102F20000398FFF7A9FF06E0039800F0B7F80398AD
:102F300000F0B8F8FFE7039900200877FFE7FFE704
:102F40009DF804000007002824D5FFE79DF808003D
:102F5000000700281DD5FFE7039801686FF00800FF
:102F6000086103990420087703980068C069800706
:102F700020B1FFE70398FFF77FFF06E0039800F01A
:102F80008DF8039800F08EF8FFE70399002008778A
:102F9000FFE7FFE79DF80400C006002825D5FFE7FE
:102FA0009DF80800C00600281ED5FFE703980168B9
:102FB0006FF01000086103990820087703980068F3
:102FC000C06910F4407F04D0FFE70398FFF754FF77
:102FD00006E0039800F062F8039800F063F8FFE75A
:102FE000039900200877FFE7FFE79DF80400C0077A
:102FF00078B1FFE79DF80800C00748B1FFE70398E4
:1030000001686FF001000861039800F04FF8FFE7D6
:10301000FFE79DF804000006002810D5FFE79DF8A3
:1030200008000006002809D5FFE7039801686FF043
:10303000800008610398FFF791FDFFE7FFE79DF827
:1030400004004006002810D5FFE79DF80800400660
:10305000002809D5FFE7039801686FF04000086178
:10306000039800F0E7F8FFE7FFE79DF8040080060B
:10307000002810D5FFE79DF808008006002809D534
:10308000FFE7039801686FF0200008610398FFF7DD
:1030900069FDFFE7FFE704B080BD000081B000904C
:1030A00001B0704781B0009001B0704780B582B028
:1030B00001900198006841F20001C4F200018842C9
:1030C00040F0B680FFE740F2FC30C2F2000002F0B0
:1030D00009F8022812D0FFE740F2EC10C2F200001B
:1030E0000078C00780B1FFE740F21830C2F200005C
:1030F000B7EE000A01F0D0FC30B1FFE70022104625
:103100001146FDF7B3F969E040F2EC10C2F200009D
:103110000078C00700284BD1FFE740F2FC30C2F234
:10312000000001F0DFFF002842D1FFE740F2FC3051
:10313000C2F2000001F0CAFF022839D1FFE740F2D5
:10314000FC30C2F2000001F0C7FF88BBFFE740F28D
:10315000FC30C2F2000001F0CBFF022828D1FFE7CB
:1031600040F21830C2F200000078C007E0B9FFE773
:1031700040F21830C2F20000009001F0B9FC009853
:1031800001F0ECFB014640F27000C2F20000018049
:1031900002884FF6FF71891A0180B0F900200021E2
:1031A0000846FDF763F902E002F0B4F9FFE7FFE734
:1031B00040F2EC10C2F200000078C00768B1FFE7EF
:1031C00040F21830C2F20000B7EE000A01F064FCD1
:1031D00018B9FFE702F018F9FFE7FFE740F2FC300B
:1031E000C2F2000001F07EFFD0B9FFE740F2FC30F0
:1031F000C2F2000001F06AFF022811D1FFE740F29D
:10320000FC30C2F2000001F067FF48B9FFE740F26E
:10321000FC30C2F2000001F06BFF022807D0FFE78C
:1032200040F2EC11C2F2000100200870FFE7FFE756
:1032300002B080BD81B0009001B0704780B586B00B
:1032400004900391ADF80A20049890F842002028D9
:1032500048D1FFE7039820B1FFE7BDF80A0020B985
:10326000FFE701208DF8170040E004990120086372
:1032700004990020486304980399BDF80A2001F0DE
:103280004DF98DF809000498006B012821D1FFE762
:10329000FFE70020019004980068006801900498FE
:1032A0000068406801900198FFE7FFE7FFE7049896
:1032B000006850E8030F40F010000090FFE700990D
:1032C0000498026842E803100028F0D1FFE7FFE706
:1032D00003E001208DF80900FFE79DF809008DF853
:1032E000170003E002208DF81700FFE79DF8170094
:1032F00006B080BD80B582B00190ADF80210019893
:10330000006844F60001C4F2000188422ED1FFE7B4
:103310009DF8022040F2FC30C2F2000040F2704101
:10332000C2F2000101F0C8FD50B9FFE741F60040CC
:10333000C4F202004FF400610122FEF73DFD09E0F6
:1033400041F60040C4F202004FF400610022FEF793
:1033500033FDFFE740F2A410C2F2000040F27041DA
:10336000C2F200012422FFF769FFFFE702B080BD2F
:1033700081B0009001B0704780B592B01190119863
:1033800000680068109011980068C0680F9011984C
:10339000006840690E9000200D900C90109800F08D
:1033A0000F000D900D9888B9FFE79DF8400080064A
:1033B00000280AD5FFE79DF83C008006002804D5C8
:1033C000FFE7119800F058FF02E2FFE70D98002890
:1033D00000F0C280FFE79DF83800C00738B9FFE76A
:1033E000BDF83C0010F4907F00F0B680FFE79DF838
:1033F0004000C00758B1FFE79DF83D00C00730B15D
:10340000FFE71199486C40F001004864FFE79DF820
:103410004000400700280BD5FFE79DF83800C007A3
:1034200030B1FFE71199486C40F002004864FFE7B3
:103430009DF84000800700280BD5FFE79DF8380075
:10344000C00730B1FFE71199486C40F004004864B0
:10345000FFE79DF840000007002811D5FFE79DF821
:103460003C008006002805D4FFE79DF83800C0071F
:1034700030B1FFE71199486C40F008004864FFE75D
:103480001198406C002866D0FFE79DF84000800648
:1034900000280AD5FFE79DF83C008006002804D5E7
:1034A000FFE7119800F0E8FEFFE711980068406917
:1034B000C0F380100C901198406C0007002804D4D1
:1034C000FFE70C9800283ED0FFE7119800F05AFE65
:1034D000119800684069400600282FD5FFE7FFE7F4
:1034E000FFE71198006850E8050F20F040000B90AE
:1034F000FFE70B991198026842E805100028F0D107
:10350000FFE7FFE71198C06B98B1FFE71198C16B17
:1035100043F6C570C0F6000008651198C06BFDF752
:10352000A3FF28B1FFE71198C06B016D8847FFE743
:1035300003E01198FFF71CFFFFE703E01198FFF786
:1035400017FFFFE706E01198FFF712FF119900201F
:103550004864FFE7FFE73BE11198006B012840F06A
:103560001781FFE79DF84000C006002840F1108158
:10357000FFE79DF83C00C006002840F10981FFE705
:10358000FFE700200A901198006800680A901198DF
:10359000006840680A900A98FFE71198006840693F
:1035A0004006002840F19A80FFE71198C06B006840
:1035B0004068ADF82600BDF82600002875D0FFE76A
:1035C000BDF826001199898D88426EDAFFE7BDF8B3
:1035D00026001199C8851198C06BC069B0F5807F2D
:1035E00058D0FFE7FFE7FFE71198006850E8030FA6
:1035F00020F480700890FFE708991198026842E86B
:1036000003100028F0D1FFE7FFE7FFE7FFE711987D
:10361000006850E8050F20F001000790FFE70799C8
:103620001198026842E805100028F0D1FFE7FFE793
:10363000FFE7FFE71198006850E8050F20F0400011
:103640000690FFE706991198026842E805100028E5
:10365000F0D1FFE7FFE71199202081F8420011998E
:1036600000200863FFE7FFE71198006850E8030FA8
:1036700020F010000590FFE705991198026842E8D4
:1036800003100028F0D1FFE7FFE71198C06BFDF7AA
:1036900075FEFFE71199022048631198818DC28D54
:1036A000891A89B2FFF726FE17E0BDF826001199A6
:1036B000898D884210D1FFE71198C06BC069B0F5C1
:1036C000807F08D1FFE71199022048631198818D0E
:1036D000FFF710FEFFE7FFE7FFE779E01199888D1C
:1036E000C98D401AADF812001198C08D00284ED037
:1036F000FFE7BDF81200002849D0FFE7FFE7FFE72A
:103700001198006850E8030F20F490700390FFE7D1
:1037100003991198026842E803100028F0D1FFE7EE
:10372000FFE7FFE7FFE71198006850E8050F20F07A
:1037300001000290FFE702991198026842E8051023
:103740000028F0D1FFE7FFE71199202081F842001F
:10375000119900200863FFE7FFE71198006850E81F
:10376000030F20F010000190FFE701991198026803
:1037700042E803100028F0D1FFE7FFE7119902208B
:1037800048631198BDF81210FFF7B4FDFFE71FE082
:103790009DF84000000600280AD5FFE79DF83C0090
:1037A0000006002804D5FFE7119800F04FFF0FE056
:1037B0009DF84000400600280AD5FFE79DF83C0030
:1037C0004006002804D5FFE7119800F025FDFFE72B
:1037D00012B080BD80B582B00090009820B9FFE79C
:1037E00001208DF8070040E00098806908B1FFE7EC
:1037F00000E0FFE7009890F8410040B9FFE700992A
:10380000002081F84000009800F034F8FFE70099AC
:10381000242081F8410000980168C86820F4005015
:10382000C860009800F0DCFD00980168086920F489
:103830009040086100980168486920F02A004861BA
:1038400000980168C86840F40050C86000990020E2
:103850004864009A202182F84110009A82F84210B0
:10386000009948638DF80700FFE79DF8070002B054
:1038700080BD000080B58CB00B9000200A900990AC
:103880000890079006900B98006844F60001C4F277
:103890000001884268D1FFE7FFE70020059043F66A
:1038A0004000C4F20200016841F480210160006818
:1038B00000F4802005900598FFE7FFE700200490C2
:1038C00043F63000C4F20200016841F004010160D7
:1038D000006800F0040004900498FFE74FF4406093
:1038E0000690022007900020029008900320099083
:1038F00007200A9040F60000C4F2020006A9FEF775
:103900007FF8029940F2A400C2F20000039046F250
:103910002802C4F2020202604FF00062426081603D
:10392000C1604FF48062026141618161C1610162E5
:103930004162FDF74BFF18B1FFE7FCF79FFEFFE781
:10394000FFE70B9840F2A401C2F20001C1630B989B
:103950008863FFE72720019000221146FEF7DCFA7A
:103960000198FEF7CFFAFFE70CB080BD81B0009060
:1039700001B0704781B0009001B0704781B00090F5
:1039800001B07047FFE7FEE780B582B040F27C00EF
:10399000C2F20000009046F20041C4F20001016052
:1039A00003214160002101918160C1604FF4102228
:1039B00002614FF400124261017641768176C17650
:1039C00001774177FDF70CFB18B1FFE7FCF756FED6
:1039D000FFE702B080BD000080B582B0FFE70020A5
:1039E000019043F63000C4F20200016841F4001176
:1039F0000160006800F4001001900198FFE70C20BE
:103A0000009000221146FEF787FA0098FEF77AFA36
:103A100002B080BD80B592B00020119010900F9040
:103A20000E900D90FFE700200C9043F63000C4F29A
:103A30000200016841F002010160006800F002002C
:103A40000C900C98FFE7FFE700200B9043F6300046
:103A5000C4F20200016841F001010160006800F059
:103A600001000B900B98FFE7FFE700200A9043F658
:103A70003000C4F20200016841F0080101600068F2
:103A800000F008000A900A98FFE7FFE7002009907D
:103A900043F63000C4F20200016841F00401016005
:103AA000006800F0040009900998FFE7FFE7002094
:103AB000089043F63000C4F20200016841F0800132
:103AC0000160006800F0800008900898FFE741F668
:103AD0000040C4F2020001904FF4E0510091002236
:103AE0000592FEF769F9059A0020C4F202000390DE
:103AF00010210291FEF760F9059A40F20040C4F2ED
:103B00000200069001210491FEF756F9009B0198EE
:103B1000049A05990D930E920F9210910DA9079199
:103B2000FDF76EFF0398049B059A07990D930E927B
:103B300002220F92FDF764FFDDF808C00398049B92
:103B4000059A0799CDF834C00E930F931092FDF7A4
:103B500057FF049B059A069807990D930E930F93B0
:103B60001092FDF74DFF12B080BD000080B582B00D
:103B700040F20410C2F20000019043F20001C4F2CE
:103B8000010101604FF48271416000218160C160D8
:103B900002220261012242614FF4007282613822E6
:103BA000C2610162416281620A21C162FEF706FFC1
:103BB00018B1FFE7FCF762FDFFE702B080BD00002F
:103BC00080B582B000210191009140F25C10C2F2F8
:103BD000000041F20002C4F20002026040F2E7324B
:103BE000426081605322C2608161FFF751F818B1D1
:103BF000FFE7FCF743FDFFE700200090019040F253
:103C00005C10C2F200006946FEF7B0FF18B1FFE792
:103C1000FCF734FDFFE702B080BD000080B582B044
:103C200040F2A410C2F20000019044F60001C4F278
:103C30000001016048F2A061C0F2010141604FF44F
:103C4000805181600021C1604FF4806202610C22CA
:103C500042618161C161FFF7BDFD18B1FFE7FCF76B
:103C60000DFDFFE702B080BDFFE7FEE7FFE7FEE7DF
:103C700088B0079006910592079800F0070004901D
:103C80000498C0F10700052803D3FFE70420019042
:103C900004E00498C0F107000190FFE70198039049
:103CA00004980430062803D8FFE70020009003E0C2
:103CB000049803380090FFE7009802900698039953
:103CC000012202FA01F101390840029B984005994E
:103CD0009A40013A1140084308B07047704700000D
:103CE0007047000080B582B0009000980138B0F1B4
:103CF000807F03D3FFE70120019019E0009801388D
:103D00004EF21401CEF2000108604FF0FF300F2197
:103D100001F068FA4EF21801CEF2000100200860AE
:103D20004EF21002CEF20002072111600190FFE76F
:103D3000019802B080BD000080B5FEF75BF880BD41
:103D400080B594B008A83021FCF708FB002007904C
:103D50000690059004900390FFE70020029043F640
:103D60004000C4F20200016841F080510160006827
:103D700000F0805002900298FFE7FFE700200190DA
:103D800047F20000C4F20000016841F48041016084
:103D9000006800F4804001900198FFE7022008903D
:103DA00001210B9110210C910E9000210F910821FF
:103DB0001091A821119112900420139008A8FEF7E9
:103DC0009DFA18B1FFE7FCF759FCFFE70F200390BD
:103DD00002200490002005904FF4A05006904FF46C
:103DE0008050079003A80521FEF7B8F818B1FFE747
:103DF000FCF744FCFFE714B080BD00004EF688518C
:103E0000CEF20001086840F47000086070470000BE
:103E100080B540F25C10C2F20000FFF731F880BDBF
:103E200083B00290019102980068009002980021EE
:103E3000C4F20101884225D0FFE70298B0F1804F1B
:103E400020D0FFE7029840F20041C4F2000188420E
:103E500018D0FFE7029840F60001C4F20001884242
:103E600010D0FFE7029840F60041C4F200018842FA
:103E700008D0FFE7029840F20041C4F201018842F5
:103E80000AD1FFE7009820F0700000900198416887
:103E9000009808430090FFE702980021C4F2010156
:103EA000884255D0FFE70298B0F1804F50D0FFE72D
:103EB000029840F20041C4F20001884248D0FFE776
:103EC000029840F60001C4F20001884240D0FFE7AA
:103ED000029840F60041C4F20001884238D0FFE762
:103EE000029840F20041C4F20101884230D0FFE75D
:103EF000029844F20001C4F20101884228D0FFE791
:103F0000029844F20041C4F20101884220D0FFE748
:103F1000029844F60001C4F20101884218D0FFE77C
:103F2000029841F60001C4F20001884210D0FFE778
:103F3000029841F60041C4F20001884208D0FFE730
:103F4000029842F20001C4F2000188420AD1FFE760
:103F5000009820F4407000900198C16800980843D0
:103F60000090FFE7009820F080000199496908431C
:103F70000090019880680299C862019800680299CF
:103F8000886202980021C4F20101884208D0FFE74C
:103F9000029840F20041C4F20101884205D1FFE7D6
:103FA0000198006902990863FFE70299086840F0E8
:103FB0000400086002990120486100980299086095
:103FC00003B0704780B582B001900198806B00907B
:103FD00000990020C8850098FFF7CAF902B080BD9B
:103FE00080B584B00390002002900398806B01900C
:103FF000019800684069C0B2C0090290019890F829
:10400000410021280AD1FFE7029838B1FFE7019962
:104010000020C884019800F013F9FFE701980068B8
:104020004069C0F380100290019890F84200222865
:104030000AD1FFE7029838B1FFE701990020C8854F
:10404000019800F09FF8FFE70199486C40F01000DC
:1040500048640198FFF78CF904B080BD80B586B044
:1040600005900598806B0490059800680068C0056D
:1040700000285AD4FFE704990020C885FFE7FFE72E
:104080000498006850E8030F20F480700390FFE765
:1040900003990498026842E803100028F0D1FFE772
:1040A000FFE7FFE7FFE70498006850E8050F20F0FE
:1040B00001000290FFE702990498026842E80510A7
:1040C0000028F0D1FFE7FFE7FFE7FFE7049800686B
:1040D00050E8050F20F040000190FFE70199049897
:1040E000026842E805100028F0D1FFE7FFE70499D5
:1040F000202081F842000498006B012814D1FFE7CA
:10410000FFE7FFE70498006850E8030F20F0100075
:104110000090FFE700990498026842E80310002825
:10412000F0D1FFE7FFE7FFE7FFE7049900204863CE
:104130000498006B012805D1FFE70498818DFFF7F3
:10414000D9F803E00498FFF711FCFFE706B080BD43
:1041500080B582B001900198806B00900099012099
:1041600048630098006B012806D1FFE70098818D15
:104170004908FFF7BFF803E00098FFF7FBFBFFE7F4
:1041800002B080BD84B00390FFE7FFE703980068AA
:1041900050E8030F20F490700290FFE70299039813
:1041A000026842E803100028F0D1FFE7FFE7FFE7CD
:1041B000FFE70398006850E8050F20F00100019028
:1041C000FFE701990398026842E805100028F0D142
:1041D000FFE7FFE70398006B012814D1FFE7FFE733
:1041E000FFE70398006850E8030F20F010000090EC
:1041F000FFE700990398026842E803100028F0D115
:10420000FFE7FFE7FFE70399202081F842000399C9
:104210000020086304B0704780B582B00190019817
:104220000168C86820F04000C8600199202081F82A
:1042300041000198FFF7A2FB002002B080BD000002
:1042400082B00190FFE7FFE70198006850E8030F94
:1042500020F0C0000090FFE700990198026842E852
:1042600003100028F0D1FFE7FFE70199202081F833
:10427000410002B07047000080B586B00490002075
:1042800003900290049890F84200222840F0A08009
:10429000FFE704988068B0F5805F13D1FFE70498CA
:1042A000006978B9FFE70498806A02900498006872
:1042B00040686FF35F20029908800499886A023091
:1042C000886223E00498806A039004988068B0F5BF
:1042D000805F08D0FFE70498806850B9FFE7049832
:1042E000006930B9FFE704980068406803990870D6
:1042F00007E004980068406800F07F0003990870A8
:10430000FFE70499886A01308862FFE70499C88D45
:104310000138C8850004002856D1FFE704980168D9
:10432000C86820F02000C86004980168C86820F4BC
:104330008070C86004980168486920F001004861F5
:104340000499202081F842000499002048630498D1
:10435000006B012830D1FFE7049900200863FFE7D4
:10436000FFE70498006850E8030F20F01000019068
:10437000FFE701990498026842E803100028F0D191
:10438000FFE7FFE7049800680068C00600280ED524
:10439000FFE7FFE7002000900498006800680090A5
:1043A00004980068406800900098FFE7FFE70498D1
:1043B000818DFEF79FFF03E00498FFF7D7FAFFE730
:1043C00000208DF8170007E000208DF8170003E0AB
:1043D00002208DF81700FFE79DF8170006B080BD9A
:1043E00080B586B0059005980068006920F44050BB
:1043F000059A1168D26810430861059988680B69AD
:104400004A69C96918431043084304900598006835
:10441000C06849F20C61884304990843059909680A
:10442000C86005980068406920F44070059A1168DA
:104430009269104348610598006841F20001C4F296
:104440000101884209D0FFE70598006841F2004168
:10445000C4F20101884204D1FFE7FDF7C9FE0390D1
:1044600003E0FDF7B3FE0390FFE70598C069B0F5E0
:10447000004F29D1FFE703981921A0FB0101059AFC
:104480001368029353685A00DB0FFBF7EFFE0299A3
:10449000864648F21F53C5F2EB13AEFB03204209D8
:1044A00010014FF0640C02FB1CEC322202EBCC0238
:1044B000A2FB0332F82303EA521300EB4300C2F3DA
:1044C00042121044886026E003981921A0FB0101E4
:1044D000059A1368019353689A009B0FFBF7C6FE79
:1044E0000199844648F21F52C5F2EB12ACFB023030
:1044F0004309642003FB10CC322000EB0C10A0FB1E
:104500000202F02000EA521000EB0310C2F3431243
:1045100010448860FFE706B080BD000080B58AB017
:1045200008900791ADF81A20079808998862BDF89D
:104530001A0008998885089900204864089A222161
:1045400082F842100899CA6B44F25D01C0F600017E
:10455000D1630899CA6B44F25111C0F6000111648D
:104560000899CA6B43F6E171C0F60001D16408995D
:10457000C96B086507A8059008980168C06B0431ED
:10458000059A1268BDF81A30FDF7D8F958B1FFE75F
:104590000899102048640899202081F842000120E1
:1045A0008DF827004EE0FFE700200490089800688F
:1045B0000068049008980068406804900498FFE739
:1045C00008980069A0B1FFE7FFE7FFE708980068D7
:1045D00050E8030F40F480700390FFE703990898B8
:1045E000026842E803100028F0D1FFE7FFE7FFE789
:1045F000FFE7FFE70898006850E8050F40F001006A
:104600000290FFE702990898026842E80510002826
:10461000F0D1FFE7FFE7FFE7FFE70898006850E801
:10462000050F40F040000190FFE7019908980268EB
:1046300042E805100028F0D1FFE7FFE700208DF8E1
:104640002700FFE79DF827000AB080BD83B00190E6
:10465000019890F8410021283AD1FFE7019880683D
:10466000B0F5805F13D1FFE70198006978B9FFE7E3
:104670000198006A0090009800886FF35F2001990C
:10468000096848600199086A0230086208E0019AE6
:10469000106A411C11620078019909684860FFE7BF
:1046A0000199C88C0138C884000468B9FFE70198F3
:1046B0000168C86820F08000C86001980168C86877
:1046C00040F04000C860FFE700208DF80B0003E0D9
:1046D00002208DF80B00FFE79DF80B0003B0704738
:1046E00080B540F2A410C2F20000FEF745FE80BD86
:1046F000FFE7FEE780B500F0B5FD00F0D5FD00F066
:10470000F1FD00F00DFE00F025FE00F039FE00F096
:104710004DFE80BD0000000080B582B0ADF80600FF
:10472000BDF9060000F060FF41EC100B9FED061B89
:1047300050EC111BC20F51EC100B62F3DF7141EC16
:10474000100B02B080BD00BF0000000000000000A0
:1047500081B08DED000A9DED000AB0EEC00A01B0F7
:104760007047000081B00090009900204862086204
:10477000C86101B0704700008AB009908DED080A49
:10478000CDED070A8DED061A099800909DED080AF7
:104790009DED071A30EE410A8DED050A90ED000AF5
:1047A0009DED051A20EE010A8DED040A9DED052A06
:1047B00090ED010A90ED071A20EE020A30EE010A90
:1047C00080ED070A90ED051A90ED070AB4EE410A54
:1047D000F1EE10FA04DDFFE700994869C86115E0C1
:1047E000009890ED051A90ED070AB1EE411AB4EE6B
:1047F000410AF1EE10FA08DAFFE7009890ED050A99
:10480000B1EE400A80ED070AFFE7FFE700989DED53
:10481000051A90ED020A90ED082A31EE421A20EEB8
:10482000010A8DED030A90ED060A90ED092AB7EE14
:10483000001A31EE401A9DED033A21EE031A20EEE4
:10484000020A30EE010A8DED020A05990162029911
:1048500041629DED040A90ED032A90ED071A30EEB7
:10486000010A9DED021A30EE011A9DED080A20EEB4
:10487000020A30EE010A9DED061A30EE010A8DEDB6
:10488000010A9DED010A90ED041AB4EE410AF1EE21
:1048900010FA04DDFFE700980069019015E0009828
:1048A0009DED010A90ED041AB1EE411AB4EE410AF1
:1048B000F1EE10FA08DAFFE7009890ED040AB1EE85
:1048C000400A8DED010AFFE7FFE79DED010A0AB0FE
:1048D0007047000080B58AB009908DED080ACDEDD3
:1048E000070A8DED061ACDED051A8DED042ACDEDE2
:1048F000032A8DED023A0998019008990160079901
:104900004160069981600599C1600499016103992C
:10491000416102998161FFF725FF01980AB080BDCE
:1049200082B00190ADF802100199BDF9020000EECD
:10493000100AB8EEC00A81ED170A022081F854006F
:1049400002B0704782B001908DF8031001999DF874
:10495000030081F8550002B07047000080B586B0B2
:104960000590059801900021049190F854000146AB
:104970000291002800F08080FFE70298012848D0CB
:10498000FFE7029802287BD1FFE70199081D91ED0E
:10499000170A91ED1A1A9FED3F2A20EE020A61EEE6
:1049A000020A9FED3B1AFFF7E7FE01988DED030A1F
:1049B00090F8550060B9FFE79DED030AB5EE400A97
:1049C000F1EE10FA03DAFFE700200390FFE712E0B0
:1049D000019890F8550001280CD1FFE79DED030ADE
:1049E000B5EE400AF1EE10FA03DDFFE70020039078
:1049F000FFE7FFE7FFE7019901F12C009DED030AB6
:104A0000D1ED180A9FED221AFFF7B6FE8DED040ACC
:104A100036E0019890F8550068B9FFE7019890EDED
:104A2000160AB5EE400AF1EE10FA04DAFFE7019932
:104A300000208865FFE7019890F8550001280DD106
:104A4000FFE7019890ED160AB5EE400AF1EE10FA74
:104A500004DDFFE7019900208865FFE7019901F176
:104A60002C0091ED160AD1ED180A9FED091AFFF7F7
:104A700083FE8DED040A03E00198806D0490FFE74A
:104A80009DED040ABDEEC00A10EE100A06B080BD0E
:104A9000000000000000614583B002908DED010A26
:104AA000029890ED170A90ED1A1A30EE410A8DED3A
:104AB000000A9DED000AB5EE400AF1EE10FA07DAA1
:104AC000FFE79DED000AB1EE400A8DED000AFFE719
:104AD0009DED000A9DED011A0020B4EE410AF1EEB1
:104AE00010FAB8BF012003B07047000000000000BA
:104AF00080B586B0059005980190B0F97400FFF775
:104B00000BFE01988DED020BD0F88C0000F050FEEA
:104B10009DED021B41EC100B51EC110B53EC102BD3
:104B200000F08DFE00BBFFE7019890ED1A0A90EDB2
:104B30001B1A30EE410AFFF70BFE10EE100A00F0D0
:104B400037FE41EC100B9FED221B53EC112B51EC67
:104B5000100B00F06DFE38B9FFE70199B1F8840041
:104B60000130A1F8840004E001990020A1F884003C
:104B7000FFE70198B0F8841000EE101AB8EEC00AF2
:104B800090ED241AB4EE410AF1EE10FA0ADAFFE7CA
:104B9000019890ED220A012100F0A0F80199886E99
:104BA000C86611E00198012100919FED0B0A00F009
:104BB00095F8009A0199002048668866C866C8651D
:104BC0000A70A1F88400FFE706B080BD00BF00BFF7
:104BD0007B14AE47E17A743F0000000084B003907C
:104BE00002910398009002990A78497841EA0221DB
:104BF000ADF8061002998A78C97841EA022109B213
:104C000000EE101AB8EEC00A80ED180A90F87C0089
:104C1000C00748B9FFE70099BDF80600A1F8700089
:104C2000012081F87C0050E00098BDF80610B0F833
:104C30007020891AA0F87210B0F97200B0F5805F88
:104C400008DDFFE70099B1F87200A0F50050A1F867
:104C500072000FE00098B0F9720010F5805F08DA7A
:104C6000FFE70099B1F8720000F50050A1F872005A
:104C7000FFE7FFE70099B1F9720000EE100AB8EE05
:104C8000C00A9FED131A80EE010A91ED192A9FEDDB
:104C9000111A20EE010A30EE020A81ED190A91ED97
:104CA000190A80EE010A9FED0C1A20EE010A81ED2F
:104CB0001A0A02980279407940EA0220A1F87400A9
:104CC000BDF80600A1F87000FFE704B0704700BF10
:104CD000000000460000B4433333134084B0039017
:104CE0008DF80B108DED010A039900919DF80B00D2
:104CF00081F854009DF80B00022839D1FFE7009895
:104D000090F85500B0B9FFE7FFE700989DED010A64
:104D100090ED191AB4EE410AF1EE10FA09DAFFE744
:104D20009DED010A9FED161A30EE010A8DED010A84
:104D3000EBE71CE0009890F85500012816D1FFE73A
:104D4000FFE700989DED010A90ED191AB4EE410AB3
:104D5000F1EE10FA09DDFFE79DED010A9FED071A5C
:104D600030EE010A8DED010AEBE7FFE7FFE7FFE711
:104D700000990198886504B0704700BF0000B4C373
:104D80000000B44370B58AB084460E98CDF820C0B8
:104D9000079106928DF817308DF81600089800904C
:104DA0000990002101910170DDF81CE0CDF808E0C8
:104DB000DEF80020DEF80430DEF808C0DEF80C4033
:104DC000DEF81050DEF81460866145610461C0F8B9
:104DD0000CC083604260DEF81820DEF81C30DEF87C
:104DE00020C0DEF824E0C0F828E0C0F824C0036248
:104DF000C261DDF818E0CDF80CE0DEF80020DEF846
:104E00000430DEF808C0DEF80C40DEF81050DEF8A2
:104E100014600664C5638463C0F834C00363C2626F
:104E2000DEF81820DEF81C30DEF820C0DEF824E0C2
:104E3000C0F850E0C0F84CC0836442649DF816206E
:104E400080F85420816541668166C16680F87C10D7
:104E50009DF8172080F87D20A0F884100022C4F26D
:104E6000FA32C0F8882043F20002C4F20E52C0F8B1
:104E70008C200022C4F22012C0F8902080F8551037
:104E800090F87D000146049120B1FFE704980128C5
:104E900007D00EE000990020C4F21020C1F8800075
:104EA00007E000994AF22C00C4F29910C1F8800082
:104EB000FFE709980AB070BD80B598B016901591BB
:104EC0008DF85320169806909DF85300192805DB9D
:104ED000FFE7159800780F2804D0FFE700208DF831
:104EE0005F00EAE04FF48060ADF8300000208DF8FC
:104EF0002F00FFE79DF82F000F2851DCFFE79DF8FA
:104F00002F000B214843ADF82C00BDF82C100120D8
:104F100000EBD1008DF82B00BDF82C0000F007004D
:104F20008DF82A009DF82A00042816DCFFE7159862
:104F30009DF82B208118805C9DF82A20D04049786C
:104F4000C2F10802914008436FF3DF209DF82F2043
:104F50000DF1320121F812001BE015989DF82B206D
:104F60008118805C9DF82A20D040C2F1080C4B7853
:104F7000897803FA0CF31843C2F1100291400843F8
:104F80006FF3DF209DF82F200DF1320121F8120080
:104F9000FFE7FFE79DF82F0001308DF82F00A9E70C
:104FA0000699BDF832000880BDF834004880BDF88D
:104FB00036008880BDF83800C880BDF83A100AA8CD
:104FC000009000F09BF8069A014600985172BDF8D7
:104FD0003C1000F093F806998872BDF83E1009A8BD
:104FE000019000F0ABF8069A014601981172BDF8E5
:104FF000401000F0A3F801460698C1720021C4F2E7
:10500000254108914FF48061ADF81E10BDF83210B3
:1050100000EE101AB8EE400A9FED2A2A30EE420A3E
:105020009FED291A80EE010A00F11C0180ED070AAC
:10503000BDF8342000EE102AB8EE400A30EE420AE5
:1050400080EE010A00F12002029280ED080ABDF80C
:10505000362000EE102AB8EE400A30EE420A80EE0A
:10506000010A00F11802039280ED060ABDF838200B
:1050700000EE102AB8EE400A30EE420A80EE010A35
:1050800000F11402059280ED050A07A8049000F0D3
:1050900063F80299049800F05FF80399049800F00F
:1050A0005BF80498059900F057F8FCF79DFE069907
:1050B000C86001208DF85F00FFE79DF85F0018B021
:1050C00080BD00BF000080440000254481B00090F6
:1050D0000098007A01B0704781B000900098407A43
:1050E00001B0704781B000900098807A01B070479D
:1050F00081B000900098C07A01B0704783B00190F1
:10510000ADF80210BDF80200B0F5167F04DAFFE733
:1051100000208DF80B000DE0BDF80200B0F5AF6F78
:1051200004DDFFE702208DF80B0003E001208DF87D
:105130000B00FFE79DF80B0003B0704782B00190B1
:10514000ADF80210BDF802100020B1F5806FC8BFA5
:105150000120400002B0704782B001900091009899
:1051600090ED000AB7EE001AB4EE410AF1EE10FA23
:1051700005DDFFE700994FF07E500860FFE70098DB
:1051800090ED000ABFEE001AB4EE410AF1EE10FAFB
:1051900006DAFFE700990020CBF680700860FFE791
:1051A00002B0704781B08DF803009DF9030000281C
:1051B0000ED4FFE79DF9031001F01F02012090407B
:1051C0004A094EF20011CEF2000141F82200FFE739
:1051D00001B070474EF60C50CEF200000068C0F3EC
:1051E0000220704782B08DF8070000919DF90700FA
:1051F00000280AD4FFE7009800019DF907104EF23D
:105200000042CEF2000288540BE0009800019DF8A5
:10521000071001F00F014EF61452CEF2000288542E
:10522000FFE702B07047000083B00290029800F0E0
:10523000070000904EF60C51CEF200010868019074
:1052400001984FF6FF02104001900198009A40EA41
:1052500002200022C0F2FA52104301900198086027
:1052600003B0704780B540F24840C2F20000B0EE93
:10527000040ADFED070A9FED071ADFED071A9FED1D
:10528000072ADFED072A9FED073AFFF723FB80BDD2
:105290000AD7233BCDCCCC3D0000000000803B452D
:1052A00000007A443333333F80B540F2D430C2F249
:1052B0000000B7EE000A9FED071A9FED072ADFED09
:1052C000072A9FED073AF0EE430AF0EE431AFFF784
:1052D00001FB80BDCDCCCC3D00803B4500007A4435
:1052E0000000000080B540F22040C2F20000B7EE9E
:1052F000080ADFED070ADFED071A9FED072ADFED49
:10530000072AB6EE003AB0EE611AFFF7E3FA80BD65
:105310000AD7A33B0000000000606A4600401C461C
:1053200080B540F2AC30C2F20000B7EE000A9FED4B
:10533000072A9FED073AF0EE430AB0EE431AF0EE6B
:10534000431AF0EE432AFFF7C5FA80BD00401C4621
:105350000000000080B582B069460120086040F27C
:105360008420C2F2000040F2D431C2F2000140F2C7
:105370004842C2F200020023FFF704FD02B080BDE4
:1053800080B582B069460120086040F2F010C2F298
:10539000000040F2AC31C2F2000140F22042C2F201
:1053A00000020023FFF7EEFC02B080BD80B582B0A2
:1053B00068460123036040F21830C2F2000040F258
:1053C000D431C2F2000140F24842C2F20002FFF7BB
:1053D000D9FC02B080BD000080B582B000200190F1
:1053E000FCF716FDFEF7ACFCFEF714FBFEF7F4FA33
:1053F000FEF7CAFAFEF7E4FBFEF710FCFEF7B6FB79
:1054000000F032F8FFE7FEE780B582B040F21830D6
:10541000C2F200000090FFF7A1FA014640F27000CE
:10542000C2F200000180B0F900200021019108467D
:10543000FBF71CF800990198087002B080BD0000CD
:1054400080B582B001900091019840F2032188421A
:1054500008D1FFE7009940F21830C2F20000FFF7D0
:10546000BDFBFFE702B080BD80B592B008A80190F7
:105470002821FAF773FF01990120059010901190EF
:1054800040F27C00C2F200000290FBF7D1F90298D2
:10549000FBF712FF029802210791FBF7F3F8059A38
:1054A00041F60040C4F2020003904FF48061FCF723
:1054B00083FC03984FF4006100220492FCF77CFC0B
:1054C0000398049A4FF48051FCF776FC40F25C108C
:1054D000C2F20000FDF754FC40F2A410C2F200003A
:1054E00040F27041C2F200012422FDF7A7FE0599A7
:1054F00040F21830C2F2000006909FED050AFFF757
:10550000EDFB06980799FFF71DFA12B080BD00BFAA
:105510000000000080B582B0FCF766FC0190019AA3
:1055200048F21F50C5F2EB10A2FB001040096421A5
:1055300000FB1120ADF80200BDF9021040F2183056
:10554000C2F20000FFF7ECF940F2EC11C2F20001E8
:105550000120087002B080BD491058BFC1F1404120
:105560005B1058BFC3F140438B42EFF3008070479C
:1055700051EA030C17D41CF5801F58BFBCF5801FDF
:1055800000F10680994218BF704708BF90427047EB
:1055900007D711F5801F58BF13F5801F19D4994202
:1055A0007047894270471CF5801F08D5BCF5801FE5
:1055B000F7D58B4218BF704708BF824270474FF43F
:1055C000001C1CEB410F38BF1CEB430F01D28B4278
:1055D000704770B500F098F8922449004FF00051E0
:1055E0004FF08053FFF7B8BF10F0004248BF404271
:1055F000B0FA80F310FA03F10AD0C3F11D0303F5EA
:10560000806302EB03524FEA415002EBD121704715
:105610004FF000007047000051EA030C17D41CF54E
:10562000801F58BFBCF5801F00F10680994218BF4B
:10563000704708BF9042704707D711F5801F58BFC9
:1056400013F5801F19D499427047894270471CF5A1
:10565000801F08D5BCF5801FF7D58B4218BF704757
:1056600008BF824270474FF4001C1CEB410F38BF4B
:105670001CEB430F01D28B42704770B500F044F829
:10568000922449004FF080514FF00053FFF764BF60
:1056900051EA030C17D41CF5801F58BFBCF5801FBE
:1056A00000F10680994218BF704708BF90427047CA
:1056B00007D711F5801F58BF13F5801F19D49942E1
:1056C0007047894270471CF5801F08D5BCF5801FC4
:1056D000F7D58B4218BF704708BF824270474FF41E
:1056E000001C1CEB410F38BF1CEB430F01D28B4257
:1056F000704770B500F008F8922449004FF000514F
:105700004FF08053FFF728BF0EF1020E2EF0030E6C
:105710005EF8046B364205D4012A43EB030515F508
:10572000001F12D8012841EB010C1CF5001F0CD8FA
:105730000ED14FEAD17C0CEB4C0C0CF1020C15F5A0
:10574000001F08BF4CEBD37C04E04FF0080C01E0D5
:105750004FEAD37C0CEB4C0526FA05F606F007065B
:10576000B6F1040C06D20EEB860CBDE870404CF08E
:10577000010C6047DFE80CF0090B02024FF000411A
:10578000A1F500214FF0000070BD19461046012818
:1057900051EB010418BFD4F5001484BF002001F0C0
:1057A000004170BD0808A0F500114FEA31017047B3
:1057B00043004FEAD30C4FEA3C0C43401FBF400765
:1057C0000CF1605113F0FE4F70471CF0006F03D1D5
:1057D0000CF00041002070470CF0004343EA507089
:1057E00040EACC0010B500F038F800BF000000928D
:1057F0004FEA0001FFF7D6BF4FF00041A1F50021AD
:105800004FF00000704710B5FFF7B2FE0CBF01204B
:10581000002010BD10B5FFF7ABFE14BF0120002023
:1058200010BD10B5FFF7F8FE8CBF0120002010BDA1
:1058300010B5FFF7F1FE2CBF0120002010BD10B500
:10584000FFF726FF94BF0120002010BD10B5FFF721
:105850001FFF34BF0120002010BD0EF1020E2EF0FC
:10586000030E5EF8044B244204D44FEA4102B2F125
:105870007F4F11D84FEA4003B3F17F4F0CD80ED1C0
:105880004FEAD07C0CEB4C0C0CF1020CB2F17F4FC8
:1058900008BF4CEBD17C04E04FF0080C01E04FEA6C
:1058A000D17C0CEB4C0324FA03F404F00704B4F1AC
:1058B000040C06D20EEB840CBDE810404CF0010C39
:1058C0006047DFE80CF0070802024FF00040A0F547
:1058D000800010BD0846420018BFD2F1807288BF18
:1058E00000F0004010BDF1EE100A4FF6FF71C0F25B
:1058F000C03120EA010040F04070E1EE100A70472C
:10590000000000000000000001020304060708096F
:105910000000000001020304000610160006101625
:10592000485900080000002010000000C4010008D1
:105930005859000810000020880A0000E001000803
:10594000B5EDFFFF000000000024F400010000009E
:0859500010000000000000003F
:040000050800018965
:00000001FF
